{"contracts/BluffBid.sol":{"BluffBid":{"abi":[{"anonymous":false,"inputs":[{"indexed":true,"internalType":"uint256","name":"matchId","type":"uint256"},{"indexed":false,"internalType":"uint256","name":"round","type":"uint256"},{"indexed":true,"internalType":"address","name":"player","type":"address"}],"name":"BidCommitted","type":"event"},{"anonymous":false,"inputs":[{"indexed":true,"internalType":"uint256","name":"matchId","type":"uint256"},{"indexed":false,"internalType":"uint256","name":"round","type":"uint256"},{"indexed":true,"internalType":"address","name":"player","type":"address"},{"indexed":false,"internalType":"uint256","name":"bid","type":"uint256"}],"name":"BidRevealed","type":"event"},{"anonymous":false,"inputs":[{"indexed":true,"internalType":"uint256","name":"matchId","type":"uint256"},{"indexed":true,"internalType":"address","name":"creator","type":"address"}],"name":"MatchCreated","type":"event"},{"anonymous":false,"inputs":[{"indexed":true,"internalType":"uint256","name":"matchId","type":"uint256"},{"indexed":false,"internalType":"address","name":"winner","type":"address"},{"indexed":false,"internalType":"uint256","name":"payout","type":"uint256"}],"name":"MatchEnded","type":"event"},{"anonymous":false,"inputs":[{"indexed":true,"internalType":"uint256","name":"matchId","type":"uint256"},{"indexed":false,"internalType":"uint256","name":"payoutEach","type":"uint256"}],"name":"MatchTied","type":"event"},{"anonymous":false,"inputs":[{"indexed":true,"internalType":"uint256","name":"matchId","type":"uint256"},{"indexed":true,"internalType":"address","name":"joiner","type":"address"}],"name":"PlayerJoined","type":"event"},{"anonymous":false,"inputs":[{"indexed":true,"internalType":"uint256","name":"matchId","type":"uint256"},{"indexed":false,"internalType":"uint256","name":"round","type":"uint256"},{"indexed":false,"internalType":"address","name":"winner","type":"address"},{"indexed":false,"internalType":"uint256","name":"p1Bid","type":"uint256"},{"indexed":false,"internalType":"uint256","name":"p2Bid","type":"uint256"}],"name":"RoundResolved","type":"event"},{"inputs":[],"name":"MATCH_DEPOSIT","outputs":[{"internalType":"uint256","name":"","type":"uint256"}],"stateMutability":"view","type":"function"},{"inputs":[],"name":"MAX_BID","outputs":[{"internalType":"uint256","name":"","type":"uint256"}],"stateMutability":"view","type":"function"},{"inputs":[],"name":"MOVE_TIMEOUT","outputs":[{"internalType":"uint256","name":"","type":"uint256"}],"stateMutability":"view","type":"function"},{"inputs":[],"name":"TOTAL_ROUNDS","outputs":[{"internalType":"uint256","name":"","type":"uint256"}],"stateMutability":"view","type":"function"},{"inputs":[{"internalType":"uint256","name":"_matchId","type":"uint256"}],"name":"cancelMatch","outputs":[],"stateMutability":"nonpayable","type":"function"},{"inputs":[{"internalType":"uint256","name":"_matchId","type":"uint256"}],"name":"claimTimeout","outputs":[],"stateMutability":"nonpayable","type":"function"},{"inputs":[{"internalType":"uint256","name":"_matchId","type":"uint256"},{"internalType":"bytes32","name":"_commitment","type":"bytes32"}],"name":"commitBid","outputs":[],"stateMutability":"nonpayable","type":"function"},{"inputs":[],"name":"createMatch","outputs":[{"internalType":"uint256","name":"matchId","type":"uint256"}],"stateMutability":"payable","type":"function"},{"inputs":[{"internalType":"uint256","name":"_matchId","type":"uint256"}],"name":"joinMatch","outputs":[],"stateMutability":"payable","type":"function"},{"inputs":[],"name":"matchIdCounter","outputs":[{"internalType":"uint256","name":"","type":"uint256"}],"stateMutability":"view","type":"function"},{"inputs":[{"internalType":"uint256","name":"","type":"uint256"}],"name":"matches","outputs":[{"internalType":"uint256","name":"id","type":"uint256"},{"internalType":"enum BluffBid.MatchStatus","name":"status","type":"uint8"},{"internalType":"uint256","name":"currentRound","type":"uint256"},{"internalType":"uint256","name":"lastActionTime","type":"uint256"},{"components":[{"internalType":"address","name":"addr","type":"address"},{"internalType":"uint256","name":"balance","type":"uint256"},{"internalType":"uint256","name":"wins","type":"uint256"},{"internalType":"bool","name":"isActive","type":"bool"}],"internalType":"struct BluffBid.PlayerState","name":"player1","type":"tuple"},{"components":[{"internalType":"address","name":"addr","type":"address"},{"internalType":"uint256","name":"balance","type":"uint256"},{"internalType":"uint256","name":"wins","type":"uint256"},{"internalType":"bool","name":"isActive","type":"bool"}],"internalType":"struct BluffBid.PlayerState","name":"player2","type":"tuple"}],"stateMutability":"view","type":"function"},{"inputs":[{"internalType":"uint256","name":"_matchId","type":"uint256"},{"internalType":"uint256","name":"_bid","type":"uint256"},{"internalType":"bytes32","name":"_salt","type":"bytes32"}],"name":"revealBid","outputs":[],"stateMutability":"nonpayable","type":"function"}],"evm":{"bytecode":{"linkReferences":{},"object":"608060405234801561001057600080fd5b5061144a806100206000396000f3fe6080604052600436106100a75760003560e01c806386e773f11161006457806386e773f1146102195780639468cb6114610239578063a0cc641a14610259578063ce8dc388146101d7578063d02c8cdf14610261578063feb8c4381461028157600080fd5b806336d9a8fa146100ac5780634768d4ef146100dc5780634d380a0d146101b55780634d91e1f7146101d75780634fdc2fb4146101ec5780636a07dc1214610202575b600080fd5b3480156100b857600080fd5b506100c96801158e460913d0000081565b6040519081526020015b60405180910390f35b3480156100e857600080fd5b506101a36100f73660046111d2565b6001602081815260009283526040928390208054928101546002820154600383015486516080808201895260048601546001600160a01b0390811683526005870154838901526006870154838b0152600787015460ff90811615156060808601919091528b519384018c5260088901549092168352600988015498830198909852600a87015499820199909952600b909501548616151597850197909752949593909116939092909186565b6040516100d396959493929190611201565b3480156101c157600080fd5b506101d56101d03660046112ae565b610294565b005b3480156101e357600080fd5b506100c9600581565b3480156101f857600080fd5b506100c960005481565b34801561020e57600080fd5b506100c96201518081565b34801561022557600080fd5b506101d56102343660046111d2565b61071c565b34801561024557600080fd5b506101d56102543660046112da565b610866565b6100c9610a69565b34801561026d57600080fd5b506101d561027c3660046111d2565b610b89565b6101d561028f3660046111d2565b610cb4565b60008381526001602052604090206004015483906001600160a01b03163314806102d757506000818152600160205260409020600801546001600160a01b031633145b6103175760405162461bcd60e51b815260206004820152600c60248201526b2737ba103090383630bcb2b960a11b60448201526064015b60405180910390fd5b836001806000838152600160208190526040909120015460ff166002811115610342576103426111eb565b1461035f5760405162461bcd60e51b815260040161030e906112fc565b60025460ff16156103825760405162461bcd60e51b815260040161030e90611329565b6002805460ff191660019081178255600088815260209182526040808220938401548252600c840190925220805460ff1680156103c557508054610100900460ff165b6104045760405162461bcd60e51b815260206004820152601060248201526f5761697420666f7220636f6d6d69747360801b604482015260640161030e565b60058711156104445760405162461bcd60e51b815260206004820152600c60248201526b084d2c840e8dede40d0d2ced60a31b604482015260640161030e565b60048201546001600160a01b0316330361057657805462010000900460ff16156104a35760405162461bcd60e51b815260206004820152601060248201526f105b1c9958591e481c995d99585b195960821b604482015260640161030e565b600181015460408051602081018a905290810188905260600160405160208183030381529060405280519060200120146105105760405162461bcd60e51b815260206004820152600e60248201526d125b9d985b1a59081c995d99585b60921b604482015260640161030e565b600582015487111561055b5760405162461bcd60e51b8152602060048201526014602482015273496e73756666696369656e742062616c616e636560601b604482015260640161030e565b60038101879055805462ff0000191662010000178155610693565b80546301000000900460ff16156105c25760405162461bcd60e51b815260206004820152601060248201526f105b1c9958591e481c995d99585b195960821b604482015260640161030e565b600281015460408051602081018a9052908101889052606001604051602081830303815290604052805190602001201461062f5760405162461bcd60e51b815260206004820152600e60248201526d125b9d985b1a59081c995d99585b60921b604482015260640161030e565b600982015487111561067a5760405162461bcd60e51b8152602060048201526014602482015273496e73756666696369656e742062616c616e636560601b604482015260640161030e565b60048101879055805463ff000000191663010000001781555b4260038301556002820154604080519182526020820189905233918a917fba834bd29b9c83bed0d9d44ea4d24baaf635bead31040df74304eccaec08a928910160405180910390a3805462010000900460ff1680156106fa575080546301000000900460ff165b156107085761070888610e4b565b50506002805460ff19169055505050505050565b60025460ff161561073f5760405162461bcd60e51b815260040161030e90611329565b6002805460ff191660019081179091558190806000838152600160208190526040909120015460ff166002811115610779576107796111eb565b146107965760405162461bcd60e51b815260040161030e906112fc565b600083815260016020526040902060038101546107b7906201518090611376565b42116107fb5760405162461bcd60e51b8152602060048201526013602482015272151a5b595bdd5d081b9bdd081c995858da1959606a1b604482015260640161030e565b60006108116801158e460913d00000600261138f565b60018301805460ff19166002179055905061082c3382610fba565b604080513381526020810183905286916000805160206113f5833981519152910160405180910390a250506002805460ff19169055505050565b60008281526001602052604090206004015482906001600160a01b03163314806108a957506000818152600160205260409020600801546001600160a01b031633145b6108e45760405162461bcd60e51b815260206004820152600c60248201526b2737ba103090383630bcb2b960a11b604482015260640161030e565b826001806000838152600160208190526040909120015460ff16600281111561090f5761090f6111eb565b1461092c5760405162461bcd60e51b815260040161030e906112fc565b600085815260016020908152604080832060028101548452600c810190925290912060048201546001600160a01b031633036109be57805460ff16156109a85760405162461bcd60e51b8152602060048201526011602482015270105b1c9958591e4818dbdb5b5a5d1d1959607a1b604482015260640161030e565b6001808201879055815460ff1916178155610a1e565b8054610100900460ff1615610a095760405162461bcd60e51b8152602060048201526011602482015270105b1c9958591e4818dbdb5b5a5d1d1959607a1b604482015260640161030e565b60028101869055805461ff0019166101001781555b4260038301556002820154604051908152339088907ffc72b48edff9df7ca66d669e3b2ad693ae2c5d6381c95d89b2b2c01c42e7a1779060200160405180910390a350505050505050565b60006801158e460913d000003414610ab75760405162461bcd60e51b8152602060048201526011602482015270125b98dbdc9c9958dd0819195c1bdcda5d607a1b604482015260640161030e565b600080549080610ac6836113a6565b909155505060008054808252600160208181526040808520848155808401805460ff19908116909155600282018590554260038301558251608081018452338082526801158e460913d0000095820186905281850189905260609091018690526004830180546001600160a01b03191682179055600583019490945560068201879055600782018054909116909417909355519294509092909184917f18a47d8df22f178f89e665cc0fccf4ee175e91434c7b749c4a7607ffa4d33a6791a35090565b60025460ff1615610bac5760405162461bcd60e51b815260040161030e90611329565b6002805460ff19166001179055806000806000838152600160208190526040909120015460ff166002811115610be457610be46111eb565b14610c015760405162461bcd60e51b815260040161030e906112fc565b600083815260016020526040902060048101546001600160a01b03163314610c595760405162461bcd60e51b815260206004820152600b60248201526a2737ba1031b932b0ba37b960a91b604482015260640161030e565b60018101805460ff19166002179055610c7b336801158e460913d00000610fba565b604080516000808252602082015285916000805160206113f5833981519152910160405180910390a250506002805460ff191690555050565b806000806000838152600160208190526040909120015460ff166002811115610cdf57610cdf6111eb565b14610cfc5760405162461bcd60e51b815260040161030e906112fc565b6801158e460913d000003414610d485760405162461bcd60e51b8152602060048201526011602482015270125b98dbdc9c9958dd0819195c1bdcda5d607a1b604482015260640161030e565b600083815260016020526040902060048101546001600160a01b03163303610da55760405162461bcd60e51b815260206004820152601060248201526f43616e6e6f742073656c662d706c617960801b604482015260640161030e565b60408051608081018252338082526801158e460913d00000602083018190526000838501819052600160609094018490526008860180546001600160a01b031916841790556009860191909155600a8501819055600b8501805460ff1990811685179091558584018054909116909317909255426003850155915186917f87969bc7faf902221a147b95ceba76e011c5efb0339a0a8ee7a2bb82d9cfbbd691a350505050565b600081815260016020908152604080832060028101548452600c8101909252822060038101546005830180549394929391929091610e8a9084906113bf565b90915550506004810154600983018054600090610ea89084906113bf565b925050819055506000816004015482600301541115610eec57600683018054906000610ed3836113a6565b90915550505060048201546001600160a01b0316610f23565b816003015482600401541115610f2357600a83018054906000610f0e836113a6565b90915550505060088201546001600160a01b03165b600283015460038301546004840154604080519384526001600160a01b0385166020850152830191909152606082015284907fd5d50ecbb0796a826ef966c5f52d56b36cf7ff32182b77ffae8fccdb72cfc8a99060800160405180910390a2600583600201541015610fab57600283018054906000610fa1836113a6565b9190505550610fb4565b610fb484611054565b50505050565b6000826001600160a01b03168260405160006040518083038185875af1925050503d8060008114611007576040519150601f19603f3d011682016040523d82523d6000602084013e61100c565b606091505b505090508061104f5760405162461bcd60e51b815260206004820152600f60248201526e151c985b9cd9995c8819985a5b1959608a1b604482015260640161030e565b505050565b60008181526001602081905260408220908101805460ff1916600290811790915590919061108c906801158e460913d000009061138f565b600a830154600684015491925010156110f55760048201546110b7906001600160a01b031682610fba565b6004820154604080516001600160a01b0390921682526020820183905284916000805160206113f583398151915291015b60405180910390a2505050565b6006820154600a830154111561115257600882015461111d906001600160a01b031682610fba565b6008820154604080516001600160a01b0390921682526020820183905284916000805160206113f583398151915291016110e8565b600061115f6002836113d2565b600484015490915061117a906001600160a01b031682610fba565b6008830154611192906001600160a01b031682610fba565b837ffd85f55d87f5bc0d416a295b7d542937b36a71d7445647799a1da64f147af087826040516111c491815260200190565b60405180910390a250505050565b6000602082840312156111e457600080fd5b5035919050565b634e487b7160e01b600052602160045260246000fd5b86815261018081016003871061122757634e487b7160e01b600052602160045260246000fd5b86602083015285604083015284606083015261126f608083018580516001600160a01b0316825260208082015190830152604080820151908301526060908101511515910152565b82516001600160a01b03166101008301526020830151610120830152604083015161014083015260608301511515610160830152979650505050505050565b6000806000606084860312156112c357600080fd5b505081359360208301359350604090920135919050565b600080604083850312156112ed57600080fd5b50508035926020909101359150565b602080825260139082015272496e76616c6964206d6174636820737461746560681b604082015260600190565b6020808252601f908201527f5265656e7472616e637947756172643a207265656e7472616e742063616c6c00604082015260600190565b634e487b7160e01b600052601160045260246000fd5b8082018082111561138957611389611360565b92915050565b808202811582820484141761138957611389611360565b6000600182016113b8576113b8611360565b5060010190565b8181038181111561138957611389611360565b6000826113ef57634e487b7160e01b600052601260045260246000fd5b50049056fef7941575935cbb66993b36c83981a3fc6df73f88ce282ddfdc9bc41e40756a11a2646970667358221220040354cd8e541de052621f2ef1b2622a10e8c240e1277ce92baae643f8320bf564736f6c63430008180033","opcodes":"PUSH1 0x80 PUSH1 0x40 MSTORE CALLVALUE DUP1 ISZERO PUSH2 0x10 JUMPI PUSH1 0x0 DUP1 REVERT JUMPDEST POP PUSH2 0x144A DUP1 PUSH2 0x20 PUSH1 0x0 CODECOPY PUSH1 0x0 RETURN INVALID PUSH1 0x80 PUSH1 0x40 MSTORE PUSH1 0x4 CALLDATASIZE LT PUSH2 0xA7 JUMPI PUSH1 0x0 CALLDATALOAD PUSH1 0xE0 SHR DUP1 PUSH4 0x86E773F1 GT PUSH2 0x64 JUMPI DUP1 PUSH4 0x86E773F1 EQ PUSH2 0x219 JUMPI DUP1 PUSH4 0x9468CB61 EQ PUSH2 0x239 JUMPI DUP1 PUSH4 0xA0CC641A EQ PUSH2 0x259 JUMPI DUP1 PUSH4 0xCE8DC388 EQ PUSH2 0x1D7 JUMPI DUP1 PUSH4 0xD02C8CDF EQ PUSH2 0x261 JUMPI DUP1 PUSH4 0xFEB8C438 EQ PUSH2 0x281 JUMPI PUSH1 0x0 DUP1 REVERT JUMPDEST DUP1 PUSH4 0x36D9A8FA EQ PUSH2 0xAC JUMPI DUP1 PUSH4 0x4768D4EF EQ PUSH2 0xDC JUMPI DUP1 PUSH4 0x4D380A0D EQ PUSH2 0x1B5 JUMPI DUP1 PUSH4 0x4D91E1F7 EQ PUSH2 0x1D7 JUMPI DUP1 PUSH4 0x4FDC2FB4 EQ PUSH2 0x1EC JUMPI DUP1 PUSH4 0x6A07DC12 EQ PUSH2 0x202 JUMPI JUMPDEST PUSH1 0x0 DUP1 REVERT JUMPDEST CALLVALUE DUP1 ISZERO PUSH2 0xB8 JUMPI PUSH1 0x0 DUP1 REVERT JUMPDEST POP PUSH2 0xC9 PUSH9 0x1158E460913D00000 DUP2 JUMP JUMPDEST PUSH1 0x40 MLOAD SWAP1 DUP2 MSTORE PUSH1 0x20 ADD JUMPDEST PUSH1 0x40 MLOAD DUP1 SWAP2 SUB SWAP1 RETURN JUMPDEST CALLVALUE DUP1 ISZERO PUSH2 0xE8 JUMPI PUSH1 0x0 DUP1 REVERT JUMPDEST POP PUSH2 0x1A3 PUSH2 0xF7 CALLDATASIZE PUSH1 0x4 PUSH2 0x11D2 JUMP JUMPDEST PUSH1 0x1 PUSH1 0x20 DUP2 DUP2 MSTORE PUSH1 0x0 SWAP3 DUP4 MSTORE PUSH1 0x40 SWAP3 DUP4 SWAP1 KECCAK256 DUP1 SLOAD SWAP3 DUP2 ADD SLOAD PUSH1 0x2 DUP3 ADD SLOAD PUSH1 0x3 DUP4 ADD SLOAD DUP7 MLOAD PUSH1 0x80 DUP1 DUP3 ADD DUP10 MSTORE PUSH1 0x4 DUP7 ADD SLOAD PUSH1 0x1 PUSH1 0x1 PUSH1 0xA0 SHL SUB SWAP1 DUP2 AND DUP4 MSTORE PUSH1 0x5 DUP8 ADD SLOAD DUP4 DUP10 ADD MSTORE PUSH1 0x6 DUP8 ADD SLOAD DUP4 DUP12 ADD MSTORE PUSH1 0x7 DUP8 ADD SLOAD PUSH1 0xFF SWAP1 DUP2 AND ISZERO ISZERO PUSH1 0x60 DUP1 DUP7 ADD SWAP2 SWAP1 SWAP2 MSTORE DUP12 MLOAD SWAP4 DUP5 ADD DUP13 MSTORE PUSH1 0x8 DUP10 ADD SLOAD SWAP1 SWAP3 AND DUP4 MSTORE PUSH1 0x9 DUP9 ADD SLOAD SWAP9 DUP4 ADD SWAP9 SWAP1 SWAP9 MSTORE PUSH1 0xA DUP8 ADD SLOAD SWAP10 DUP3 ADD SWAP10 SWAP1 SWAP10 MSTORE PUSH1 0xB SWAP1 SWAP6 ADD SLOAD DUP7 AND ISZERO ISZERO SWAP8 DUP6 ADD SWAP8 SWAP1 SWAP8 MSTORE SWAP5 SWAP6 SWAP4 SWAP1 SWAP2 AND SWAP4 SWAP1 SWAP3 SWAP1 SWAP2 DUP7 JUMP JUMPDEST PUSH1 0x40 MLOAD PUSH2 0xD3 SWAP7 SWAP6 SWAP5 SWAP4 SWAP3 SWAP2 SWAP1 PUSH2 0x1201 JUMP JUMPDEST CALLVALUE DUP1 ISZERO PUSH2 0x1C1 JUMPI PUSH1 0x0 DUP1 REVERT JUMPDEST POP PUSH2 0x1D5 PUSH2 0x1D0 CALLDATASIZE PUSH1 0x4 PUSH2 0x12AE JUMP JUMPDEST PUSH2 0x294 JUMP JUMPDEST STOP JUMPDEST CALLVALUE DUP1 ISZERO PUSH2 0x1E3 JUMPI PUSH1 0x0 DUP1 REVERT JUMPDEST POP PUSH2 0xC9 PUSH1 0x5 DUP2 JUMP JUMPDEST CALLVALUE DUP1 ISZERO PUSH2 0x1F8 JUMPI PUSH1 0x0 DUP1 REVERT JUMPDEST POP PUSH2 0xC9 PUSH1 0x0 SLOAD DUP2 JUMP JUMPDEST CALLVALUE DUP1 ISZERO PUSH2 0x20E JUMPI PUSH1 0x0 DUP1 REVERT JUMPDEST POP PUSH2 0xC9 PUSH3 0x15180 DUP2 JUMP JUMPDEST CALLVALUE DUP1 ISZERO PUSH2 0x225 JUMPI PUSH1 0x0 DUP1 REVERT JUMPDEST POP PUSH2 0x1D5 PUSH2 0x234 CALLDATASIZE PUSH1 0x4 PUSH2 0x11D2 JUMP JUMPDEST PUSH2 0x71C JUMP JUMPDEST CALLVALUE DUP1 ISZERO PUSH2 0x245 JUMPI PUSH1 0x0 DUP1 REVERT JUMPDEST POP PUSH2 0x1D5 PUSH2 0x254 CALLDATASIZE PUSH1 0x4 PUSH2 0x12DA JUMP JUMPDEST PUSH2 0x866 JUMP JUMPDEST PUSH2 0xC9 PUSH2 0xA69 JUMP JUMPDEST CALLVALUE DUP1 ISZERO PUSH2 0x26D JUMPI PUSH1 0x0 DUP1 REVERT JUMPDEST POP PUSH2 0x1D5 PUSH2 0x27C CALLDATASIZE PUSH1 0x4 PUSH2 0x11D2 JUMP JUMPDEST PUSH2 0xB89 JUMP JUMPDEST PUSH2 0x1D5 PUSH2 0x28F CALLDATASIZE PUSH1 0x4 PUSH2 0x11D2 JUMP JUMPDEST PUSH2 0xCB4 JUMP JUMPDEST PUSH1 0x0 DUP4 DUP2 MSTORE PUSH1 0x1 PUSH1 0x20 MSTORE PUSH1 0x40 SWAP1 KECCAK256 PUSH1 0x4 ADD SLOAD DUP4 SWAP1 PUSH1 0x1 PUSH1 0x1 PUSH1 0xA0 SHL SUB AND CALLER EQ DUP1 PUSH2 0x2D7 JUMPI POP PUSH1 0x0 DUP2 DUP2 MSTORE PUSH1 0x1 PUSH1 0x20 MSTORE PUSH1 0x40 SWAP1 KECCAK256 PUSH1 0x8 ADD SLOAD PUSH1 0x1 PUSH1 0x1 PUSH1 0xA0 SHL SUB AND CALLER EQ JUMPDEST PUSH2 0x317 JUMPI PUSH1 0x40 MLOAD PUSH3 0x461BCD PUSH1 0xE5 SHL DUP2 MSTORE PUSH1 0x20 PUSH1 0x4 DUP3 ADD MSTORE PUSH1 0xC PUSH1 0x24 DUP3 ADD MSTORE PUSH12 0x2737BA103090383630BCB2B9 PUSH1 0xA1 SHL PUSH1 0x44 DUP3 ADD MSTORE PUSH1 0x64 ADD JUMPDEST PUSH1 0x40 MLOAD DUP1 SWAP2 SUB SWAP1 REVERT JUMPDEST DUP4 PUSH1 0x1 DUP1 PUSH1 0x0 DUP4 DUP2 MSTORE PUSH1 0x1 PUSH1 0x20 DUP2 SWAP1 MSTORE PUSH1 0x40 SWAP1 SWAP2 KECCAK256 ADD SLOAD PUSH1 0xFF AND PUSH1 0x2 DUP2 GT ISZERO PUSH2 0x342 JUMPI PUSH2 0x342 PUSH2 0x11EB JUMP JUMPDEST EQ PUSH2 0x35F JUMPI PUSH1 0x40 MLOAD PUSH3 0x461BCD PUSH1 0xE5 SHL DUP2 MSTORE PUSH1 0x4 ADD PUSH2 0x30E SWAP1 PUSH2 0x12FC JUMP JUMPDEST PUSH1 0x2 SLOAD PUSH1 0xFF AND ISZERO PUSH2 0x382 JUMPI PUSH1 0x40 MLOAD PUSH3 0x461BCD PUSH1 0xE5 SHL DUP2 MSTORE PUSH1 0x4 ADD PUSH2 0x30E SWAP1 PUSH2 0x1329 JUMP JUMPDEST PUSH1 0x2 DUP1 SLOAD PUSH1 0xFF NOT AND PUSH1 0x1 SWAP1 DUP2 OR DUP3 SSTORE PUSH1 0x0 DUP9 DUP2 MSTORE PUSH1 0x20 SWAP2 DUP3 MSTORE PUSH1 0x40 DUP1 DUP3 KECCAK256 SWAP4 DUP5 ADD SLOAD DUP3 MSTORE PUSH1 0xC DUP5 ADD SWAP1 SWAP3 MSTORE KECCAK256 DUP1 SLOAD PUSH1 0xFF AND DUP1 ISZERO PUSH2 0x3C5 JUMPI POP DUP1 SLOAD PUSH2 0x100 SWAP1 DIV PUSH1 0xFF AND JUMPDEST PUSH2 0x404 JUMPI PUSH1 0x40 MLOAD PUSH3 0x461BCD PUSH1 0xE5 SHL DUP2 MSTORE PUSH1 0x20 PUSH1 0x4 DUP3 ADD MSTORE PUSH1 0x10 PUSH1 0x24 DUP3 ADD MSTORE PUSH16 0x5761697420666F7220636F6D6D697473 PUSH1 0x80 SHL PUSH1 0x44 DUP3 ADD MSTORE PUSH1 0x64 ADD PUSH2 0x30E JUMP JUMPDEST PUSH1 0x5 DUP8 GT ISZERO PUSH2 0x444 JUMPI PUSH1 0x40 MLOAD PUSH3 0x461BCD PUSH1 0xE5 SHL DUP2 MSTORE PUSH1 0x20 PUSH1 0x4 DUP3 ADD MSTORE PUSH1 0xC PUSH1 0x24 DUP3 ADD MSTORE PUSH12 0x84D2C840E8DEDE40D0D2CED PUSH1 0xA3 SHL PUSH1 0x44 DUP3 ADD MSTORE PUSH1 0x64 ADD PUSH2 0x30E JUMP JUMPDEST PUSH1 0x4 DUP3 ADD SLOAD PUSH1 0x1 PUSH1 0x1 PUSH1 0xA0 SHL SUB AND CALLER SUB PUSH2 0x576 JUMPI DUP1 SLOAD PUSH3 0x10000 SWAP1 DIV PUSH1 0xFF AND ISZERO PUSH2 0x4A3 JUMPI PUSH1 0x40 MLOAD PUSH3 0x461BCD PUSH1 0xE5 SHL DUP2 MSTORE PUSH1 0x20 PUSH1 0x4 DUP3 ADD MSTORE PUSH1 0x10 PUSH1 0x24 DUP3 ADD MSTORE PUSH16 0x105B1C9958591E481C995D99585B1959 PUSH1 0x82 SHL PUSH1 0x44 DUP3 ADD MSTORE PUSH1 0x64 ADD PUSH2 0x30E JUMP JUMPDEST PUSH1 0x1 DUP2 ADD SLOAD PUSH1 0x40 DUP1 MLOAD PUSH1 0x20 DUP2 ADD DUP11 SWAP1 MSTORE SWAP1 DUP2 ADD DUP9 SWAP1 MSTORE PUSH1 0x60 ADD PUSH1 0x40 MLOAD PUSH1 0x20 DUP2 DUP4 SUB SUB DUP2 MSTORE SWAP1 PUSH1 0x40 MSTORE DUP1 MLOAD SWAP1 PUSH1 0x20 ADD KECCAK256 EQ PUSH2 0x510 JUMPI PUSH1 0x40 MLOAD PUSH3 0x461BCD PUSH1 0xE5 SHL DUP2 MSTORE PUSH1 0x20 PUSH1 0x4 DUP3 ADD MSTORE PUSH1 0xE PUSH1 0x24 DUP3 ADD MSTORE PUSH14 0x125B9D985B1A59081C995D99585B PUSH1 0x92 SHL PUSH1 0x44 DUP3 ADD MSTORE PUSH1 0x64 ADD PUSH2 0x30E JUMP JUMPDEST PUSH1 0x5 DUP3 ADD SLOAD DUP8 GT ISZERO PUSH2 0x55B JUMPI PUSH1 0x40 MLOAD PUSH3 0x461BCD PUSH1 0xE5 SHL DUP2 MSTORE PUSH1 0x20 PUSH1 0x4 DUP3 ADD MSTORE PUSH1 0x14 PUSH1 0x24 DUP3 ADD MSTORE PUSH20 0x496E73756666696369656E742062616C616E6365 PUSH1 0x60 SHL PUSH1 0x44 DUP3 ADD MSTORE PUSH1 0x64 ADD PUSH2 0x30E JUMP JUMPDEST PUSH1 0x3 DUP2 ADD DUP8 SWAP1 SSTORE DUP1 SLOAD PUSH3 0xFF0000 NOT AND PUSH3 0x10000 OR DUP2 SSTORE PUSH2 0x693 JUMP JUMPDEST DUP1 SLOAD PUSH4 0x1000000 SWAP1 DIV PUSH1 0xFF AND ISZERO PUSH2 0x5C2 JUMPI PUSH1 0x40 MLOAD PUSH3 0x461BCD PUSH1 0xE5 SHL DUP2 MSTORE PUSH1 0x20 PUSH1 0x4 DUP3 ADD MSTORE PUSH1 0x10 PUSH1 0x24 DUP3 ADD MSTORE PUSH16 0x105B1C9958591E481C995D99585B1959 PUSH1 0x82 SHL PUSH1 0x44 DUP3 ADD MSTORE PUSH1 0x64 ADD PUSH2 0x30E JUMP JUMPDEST PUSH1 0x2 DUP2 ADD SLOAD PUSH1 0x40 DUP1 MLOAD PUSH1 0x20 DUP2 ADD DUP11 SWAP1 MSTORE SWAP1 DUP2 ADD DUP9 SWAP1 MSTORE PUSH1 0x60 ADD PUSH1 0x40 MLOAD PUSH1 0x20 DUP2 DUP4 SUB SUB DUP2 MSTORE SWAP1 PUSH1 0x40 MSTORE DUP1 MLOAD SWAP1 PUSH1 0x20 ADD KECCAK256 EQ PUSH2 0x62F JUMPI PUSH1 0x40 MLOAD PUSH3 0x461BCD PUSH1 0xE5 SHL DUP2 MSTORE PUSH1 0x20 PUSH1 0x4 DUP3 ADD MSTORE PUSH1 0xE PUSH1 0x24 DUP3 ADD MSTORE PUSH14 0x125B9D985B1A59081C995D99585B PUSH1 0x92 SHL PUSH1 0x44 DUP3 ADD MSTORE PUSH1 0x64 ADD PUSH2 0x30E JUMP JUMPDEST PUSH1 0x9 DUP3 ADD SLOAD DUP8 GT ISZERO PUSH2 0x67A JUMPI PUSH1 0x40 MLOAD PUSH3 0x461BCD PUSH1 0xE5 SHL DUP2 MSTORE PUSH1 0x20 PUSH1 0x4 DUP3 ADD MSTORE PUSH1 0x14 PUSH1 0x24 DUP3 ADD MSTORE PUSH20 0x496E73756666696369656E742062616C616E6365 PUSH1 0x60 SHL PUSH1 0x44 DUP3 ADD MSTORE PUSH1 0x64 ADD PUSH2 0x30E JUMP JUMPDEST PUSH1 0x4 DUP2 ADD DUP8 SWAP1 SSTORE DUP1 SLOAD PUSH4 0xFF000000 NOT AND PUSH4 0x1000000 OR DUP2 SSTORE JUMPDEST TIMESTAMP PUSH1 0x3 DUP4 ADD SSTORE PUSH1 0x2 DUP3 ADD SLOAD PUSH1 0x40 DUP1 MLOAD SWAP2 DUP3 MSTORE PUSH1 0x20 DUP3 ADD DUP10 SWAP1 MSTORE CALLER SWAP2 DUP11 SWAP2 PUSH32 0xBA834BD29B9C83BED0D9D44EA4D24BAAF635BEAD31040DF74304ECCAEC08A928 SWAP2 ADD PUSH1 0x40 MLOAD DUP1 SWAP2 SUB SWAP1 LOG3 DUP1 SLOAD PUSH3 0x10000 SWAP1 DIV PUSH1 0xFF AND DUP1 ISZERO PUSH2 0x6FA JUMPI POP DUP1 SLOAD PUSH4 0x1000000 SWAP1 DIV PUSH1 0xFF AND JUMPDEST ISZERO PUSH2 0x708 JUMPI PUSH2 0x708 DUP9 PUSH2 0xE4B JUMP JUMPDEST POP POP PUSH1 0x2 DUP1 SLOAD PUSH1 0xFF NOT AND SWAP1 SSTORE POP POP POP POP POP POP JUMP JUMPDEST PUSH1 0x2 SLOAD PUSH1 0xFF AND ISZERO PUSH2 0x73F JUMPI PUSH1 0x40 MLOAD PUSH3 0x461BCD PUSH1 0xE5 SHL DUP2 MSTORE PUSH1 0x4 ADD PUSH2 0x30E SWAP1 PUSH2 0x1329 JUMP JUMPDEST PUSH1 0x2 DUP1 SLOAD PUSH1 0xFF NOT AND PUSH1 0x1 SWAP1 DUP2 OR SWAP1 SWAP2 SSTORE DUP2 SWAP1 DUP1 PUSH1 0x0 DUP4 DUP2 MSTORE PUSH1 0x1 PUSH1 0x20 DUP2 SWAP1 MSTORE PUSH1 0x40 SWAP1 SWAP2 KECCAK256 ADD SLOAD PUSH1 0xFF AND PUSH1 0x2 DUP2 GT ISZERO PUSH2 0x779 JUMPI PUSH2 0x779 PUSH2 0x11EB JUMP JUMPDEST EQ PUSH2 0x796 JUMPI PUSH1 0x40 MLOAD PUSH3 0x461BCD PUSH1 0xE5 SHL DUP2 MSTORE PUSH1 0x4 ADD PUSH2 0x30E SWAP1 PUSH2 0x12FC JUMP JUMPDEST PUSH1 0x0 DUP4 DUP2 MSTORE PUSH1 0x1 PUSH1 0x20 MSTORE PUSH1 0x40 SWAP1 KECCAK256 PUSH1 0x3 DUP2 ADD SLOAD PUSH2 0x7B7 SWAP1 PUSH3 0x15180 SWAP1 PUSH2 0x1376 JUMP JUMPDEST TIMESTAMP GT PUSH2 0x7FB JUMPI PUSH1 0x40 MLOAD PUSH3 0x461BCD PUSH1 0xE5 SHL DUP2 MSTORE PUSH1 0x20 PUSH1 0x4 DUP3 ADD MSTORE PUSH1 0x13 PUSH1 0x24 DUP3 ADD MSTORE PUSH19 0x151A5B595BDD5D081B9BDD081C995858DA1959 PUSH1 0x6A SHL PUSH1 0x44 DUP3 ADD MSTORE PUSH1 0x64 ADD PUSH2 0x30E JUMP JUMPDEST PUSH1 0x0 PUSH2 0x811 PUSH9 0x1158E460913D00000 PUSH1 0x2 PUSH2 0x138F JUMP JUMPDEST PUSH1 0x1 DUP4 ADD DUP1 SLOAD PUSH1 0xFF NOT AND PUSH1 0x2 OR SWAP1 SSTORE SWAP1 POP PUSH2 0x82C CALLER DUP3 PUSH2 0xFBA JUMP JUMPDEST PUSH1 0x40 DUP1 MLOAD CALLER DUP2 MSTORE PUSH1 0x20 DUP2 ADD DUP4 SWAP1 MSTORE DUP7 SWAP2 PUSH1 0x0 DUP1 MLOAD PUSH1 0x20 PUSH2 0x13F5 DUP4 CODECOPY DUP2 MLOAD SWAP2 MSTORE SWAP2 ADD PUSH1 0x40 MLOAD DUP1 SWAP2 SUB SWAP1 LOG2 POP POP PUSH1 0x2 DUP1 SLOAD PUSH1 0xFF NOT AND SWAP1 SSTORE POP POP POP JUMP JUMPDEST PUSH1 0x0 DUP3 DUP2 MSTORE PUSH1 0x1 PUSH1 0x20 MSTORE PUSH1 0x40 SWAP1 KECCAK256 PUSH1 0x4 ADD SLOAD DUP3 SWAP1 PUSH1 0x1 PUSH1 0x1 PUSH1 0xA0 SHL SUB AND CALLER EQ DUP1 PUSH2 0x8A9 JUMPI POP PUSH1 0x0 DUP2 DUP2 MSTORE PUSH1 0x1 PUSH1 0x20 MSTORE PUSH1 0x40 SWAP1 KECCAK256 PUSH1 0x8 ADD SLOAD PUSH1 0x1 PUSH1 0x1 PUSH1 0xA0 SHL SUB AND CALLER EQ JUMPDEST PUSH2 0x8E4 JUMPI PUSH1 0x40 MLOAD PUSH3 0x461BCD PUSH1 0xE5 SHL DUP2 MSTORE PUSH1 0x20 PUSH1 0x4 DUP3 ADD MSTORE PUSH1 0xC PUSH1 0x24 DUP3 ADD MSTORE PUSH12 0x2737BA103090383630BCB2B9 PUSH1 0xA1 SHL PUSH1 0x44 DUP3 ADD MSTORE PUSH1 0x64 ADD PUSH2 0x30E JUMP JUMPDEST DUP3 PUSH1 0x1 DUP1 PUSH1 0x0 DUP4 DUP2 MSTORE PUSH1 0x1 PUSH1 0x20 DUP2 SWAP1 MSTORE PUSH1 0x40 SWAP1 SWAP2 KECCAK256 ADD SLOAD PUSH1 0xFF AND PUSH1 0x2 DUP2 GT ISZERO PUSH2 0x90F JUMPI PUSH2 0x90F PUSH2 0x11EB JUMP JUMPDEST EQ PUSH2 0x92C JUMPI PUSH1 0x40 MLOAD PUSH3 0x461BCD PUSH1 0xE5 SHL DUP2 MSTORE PUSH1 0x4 ADD PUSH2 0x30E SWAP1 PUSH2 0x12FC JUMP JUMPDEST PUSH1 0x0 DUP6 DUP2 MSTORE PUSH1 0x1 PUSH1 0x20 SWAP1 DUP2 MSTORE PUSH1 0x40 DUP1 DUP4 KECCAK256 PUSH1 0x2 DUP2 ADD SLOAD DUP5 MSTORE PUSH1 0xC DUP2 ADD SWAP1 SWAP3 MSTORE SWAP1 SWAP2 KECCAK256 PUSH1 0x4 DUP3 ADD SLOAD PUSH1 0x1 PUSH1 0x1 PUSH1 0xA0 SHL SUB AND CALLER SUB PUSH2 0x9BE JUMPI DUP1 SLOAD PUSH1 0xFF AND ISZERO PUSH2 0x9A8 JUMPI PUSH1 0x40 MLOAD PUSH3 0x461BCD PUSH1 0xE5 SHL DUP2 MSTORE PUSH1 0x20 PUSH1 0x4 DUP3 ADD MSTORE PUSH1 0x11 PUSH1 0x24 DUP3 ADD MSTORE PUSH17 0x105B1C9958591E4818DBDB5B5A5D1D1959 PUSH1 0x7A SHL PUSH1 0x44 DUP3 ADD MSTORE PUSH1 0x64 ADD PUSH2 0x30E JUMP JUMPDEST PUSH1 0x1 DUP1 DUP3 ADD DUP8 SWAP1 SSTORE DUP2 SLOAD PUSH1 0xFF NOT AND OR DUP2 SSTORE PUSH2 0xA1E JUMP JUMPDEST DUP1 SLOAD PUSH2 0x100 SWAP1 DIV PUSH1 0xFF AND ISZERO PUSH2 0xA09 JUMPI PUSH1 0x40 MLOAD PUSH3 0x461BCD PUSH1 0xE5 SHL DUP2 MSTORE PUSH1 0x20 PUSH1 0x4 DUP3 ADD MSTORE PUSH1 0x11 PUSH1 0x24 DUP3 ADD MSTORE PUSH17 0x105B1C9958591E4818DBDB5B5A5D1D1959 PUSH1 0x7A SHL PUSH1 0x44 DUP3 ADD MSTORE PUSH1 0x64 ADD PUSH2 0x30E JUMP JUMPDEST PUSH1 0x2 DUP2 ADD DUP7 SWAP1 SSTORE DUP1 SLOAD PUSH2 0xFF00 NOT AND PUSH2 0x100 OR DUP2 SSTORE JUMPDEST TIMESTAMP PUSH1 0x3 DUP4 ADD SSTORE PUSH1 0x2 DUP3 ADD SLOAD PUSH1 0x40 MLOAD SWAP1 DUP2 MSTORE CALLER SWAP1 DUP9 SWAP1 PUSH32 0xFC72B48EDFF9DF7CA66D669E3B2AD693AE2C5D6381C95D89B2B2C01C42E7A177 SWAP1 PUSH1 0x20 ADD PUSH1 0x40 MLOAD DUP1 SWAP2 SUB SWAP1 LOG3 POP POP POP POP POP POP POP JUMP JUMPDEST PUSH1 0x0 PUSH9 0x1158E460913D00000 CALLVALUE EQ PUSH2 0xAB7 JUMPI PUSH1 0x40 MLOAD PUSH3 0x461BCD PUSH1 0xE5 SHL DUP2 MSTORE PUSH1 0x20 PUSH1 0x4 DUP3 ADD MSTORE PUSH1 0x11 PUSH1 0x24 DUP3 ADD MSTORE PUSH17 0x125B98DBDC9C9958DD0819195C1BDCDA5D PUSH1 0x7A SHL PUSH1 0x44 DUP3 ADD MSTORE PUSH1 0x64 ADD PUSH2 0x30E JUMP JUMPDEST PUSH1 0x0 DUP1 SLOAD SWAP1 DUP1 PUSH2 0xAC6 DUP4 PUSH2 0x13A6 JUMP JUMPDEST SWAP1 SWAP2 SSTORE POP POP PUSH1 0x0 DUP1 SLOAD DUP1 DUP3 MSTORE PUSH1 0x1 PUSH1 0x20 DUP2 DUP2 MSTORE PUSH1 0x40 DUP1 DUP6 KECCAK256 DUP5 DUP2 SSTORE DUP1 DUP5 ADD DUP1 SLOAD PUSH1 0xFF NOT SWAP1 DUP2 AND SWAP1 SWAP2 SSTORE PUSH1 0x2 DUP3 ADD DUP6 SWAP1 SSTORE TIMESTAMP PUSH1 0x3 DUP4 ADD SSTORE DUP3 MLOAD PUSH1 0x80 DUP2 ADD DUP5 MSTORE CALLER DUP1 DUP3 MSTORE PUSH9 0x1158E460913D00000 SWAP6 DUP3 ADD DUP7 SWAP1 MSTORE DUP2 DUP6 ADD DUP10 SWAP1 MSTORE PUSH1 0x60 SWAP1 SWAP2 ADD DUP7 SWAP1 MSTORE PUSH1 0x4 DUP4 ADD DUP1 SLOAD PUSH1 0x1 PUSH1 0x1 PUSH1 0xA0 SHL SUB NOT AND DUP3 OR SWAP1 SSTORE PUSH1 0x5 DUP4 ADD SWAP5 SWAP1 SWAP5 SSTORE PUSH1 0x6 DUP3 ADD DUP8 SWAP1 SSTORE PUSH1 0x7 DUP3 ADD DUP1 SLOAD SWAP1 SWAP2 AND SWAP1 SWAP5 OR SWAP1 SWAP4 SSTORE MLOAD SWAP3 SWAP5 POP SWAP1 SWAP3 SWAP1 SWAP2 DUP5 SWAP2 PUSH32 0x18A47D8DF22F178F89E665CC0FCCF4EE175E91434C7B749C4A7607FFA4D33A67 SWAP2 LOG3 POP SWAP1 JUMP JUMPDEST PUSH1 0x2 SLOAD PUSH1 0xFF AND ISZERO PUSH2 0xBAC JUMPI PUSH1 0x40 MLOAD PUSH3 0x461BCD PUSH1 0xE5 SHL DUP2 MSTORE PUSH1 0x4 ADD PUSH2 0x30E SWAP1 PUSH2 0x1329 JUMP JUMPDEST PUSH1 0x2 DUP1 SLOAD PUSH1 0xFF NOT AND PUSH1 0x1 OR SWAP1 SSTORE DUP1 PUSH1 0x0 DUP1 PUSH1 0x0 DUP4 DUP2 MSTORE PUSH1 0x1 PUSH1 0x20 DUP2 SWAP1 MSTORE PUSH1 0x40 SWAP1 SWAP2 KECCAK256 ADD SLOAD PUSH1 0xFF AND PUSH1 0x2 DUP2 GT ISZERO PUSH2 0xBE4 JUMPI PUSH2 0xBE4 PUSH2 0x11EB JUMP JUMPDEST EQ PUSH2 0xC01 JUMPI PUSH1 0x40 MLOAD PUSH3 0x461BCD PUSH1 0xE5 SHL DUP2 MSTORE PUSH1 0x4 ADD PUSH2 0x30E SWAP1 PUSH2 0x12FC JUMP JUMPDEST PUSH1 0x0 DUP4 DUP2 MSTORE PUSH1 0x1 PUSH1 0x20 MSTORE PUSH1 0x40 SWAP1 KECCAK256 PUSH1 0x4 DUP2 ADD SLOAD PUSH1 0x1 PUSH1 0x1 PUSH1 0xA0 SHL SUB AND CALLER EQ PUSH2 0xC59 JUMPI PUSH1 0x40 MLOAD PUSH3 0x461BCD PUSH1 0xE5 SHL DUP2 MSTORE PUSH1 0x20 PUSH1 0x4 DUP3 ADD MSTORE PUSH1 0xB PUSH1 0x24 DUP3 ADD MSTORE PUSH11 0x2737BA1031B932B0BA37B9 PUSH1 0xA9 SHL PUSH1 0x44 DUP3 ADD MSTORE PUSH1 0x64 ADD PUSH2 0x30E JUMP JUMPDEST PUSH1 0x1 DUP2 ADD DUP1 SLOAD PUSH1 0xFF NOT AND PUSH1 0x2 OR SWAP1 SSTORE PUSH2 0xC7B CALLER PUSH9 0x1158E460913D00000 PUSH2 0xFBA JUMP JUMPDEST PUSH1 0x40 DUP1 MLOAD PUSH1 0x0 DUP1 DUP3 MSTORE PUSH1 0x20 DUP3 ADD MSTORE DUP6 SWAP2 PUSH1 0x0 DUP1 MLOAD PUSH1 0x20 PUSH2 0x13F5 DUP4 CODECOPY DUP2 MLOAD SWAP2 MSTORE SWAP2 ADD PUSH1 0x40 MLOAD DUP1 SWAP2 SUB SWAP1 LOG2 POP POP PUSH1 0x2 DUP1 SLOAD PUSH1 0xFF NOT AND SWAP1 SSTORE POP POP JUMP JUMPDEST DUP1 PUSH1 0x0 DUP1 PUSH1 0x0 DUP4 DUP2 MSTORE PUSH1 0x1 PUSH1 0x20 DUP2 SWAP1 MSTORE PUSH1 0x40 SWAP1 SWAP2 KECCAK256 ADD SLOAD PUSH1 0xFF AND PUSH1 0x2 DUP2 GT ISZERO PUSH2 0xCDF JUMPI PUSH2 0xCDF PUSH2 0x11EB JUMP JUMPDEST EQ PUSH2 0xCFC JUMPI PUSH1 0x40 MLOAD PUSH3 0x461BCD PUSH1 0xE5 SHL DUP2 MSTORE PUSH1 0x4 ADD PUSH2 0x30E SWAP1 PUSH2 0x12FC JUMP JUMPDEST PUSH9 0x1158E460913D00000 CALLVALUE EQ PUSH2 0xD48 JUMPI PUSH1 0x40 MLOAD PUSH3 0x461BCD PUSH1 0xE5 SHL DUP2 MSTORE PUSH1 0x20 PUSH1 0x4 DUP3 ADD MSTORE PUSH1 0x11 PUSH1 0x24 DUP3 ADD MSTORE PUSH17 0x125B98DBDC9C9958DD0819195C1BDCDA5D PUSH1 0x7A SHL PUSH1 0x44 DUP3 ADD MSTORE PUSH1 0x64 ADD PUSH2 0x30E JUMP JUMPDEST PUSH1 0x0 DUP4 DUP2 MSTORE PUSH1 0x1 PUSH1 0x20 MSTORE PUSH1 0x40 SWAP1 KECCAK256 PUSH1 0x4 DUP2 ADD SLOAD PUSH1 0x1 PUSH1 0x1 PUSH1 0xA0 SHL SUB AND CALLER SUB PUSH2 0xDA5 JUMPI PUSH1 0x40 MLOAD PUSH3 0x461BCD PUSH1 0xE5 SHL DUP2 MSTORE PUSH1 0x20 PUSH1 0x4 DUP3 ADD MSTORE PUSH1 0x10 PUSH1 0x24 DUP3 ADD MSTORE PUSH16 0x43616E6E6F742073656C662D706C6179 PUSH1 0x80 SHL PUSH1 0x44 DUP3 ADD MSTORE PUSH1 0x64 ADD PUSH2 0x30E JUMP JUMPDEST PUSH1 0x40 DUP1 MLOAD PUSH1 0x80 DUP2 ADD DUP3 MSTORE CALLER DUP1 DUP3 MSTORE PUSH9 0x1158E460913D00000 PUSH1 0x20 DUP4 ADD DUP2 SWAP1 MSTORE PUSH1 0x0 DUP4 DUP6 ADD DUP2 SWAP1 MSTORE PUSH1 0x1 PUSH1 0x60 SWAP1 SWAP5 ADD DUP5 SWAP1 MSTORE PUSH1 0x8 DUP7 ADD DUP1 SLOAD PUSH1 0x1 PUSH1 0x1 PUSH1 0xA0 SHL SUB NOT AND DUP5 OR SWAP1 SSTORE PUSH1 0x9 DUP7 ADD SWAP2 SWAP1 SWAP2 SSTORE PUSH1 0xA DUP6 ADD DUP2 SWAP1 SSTORE PUSH1 0xB DUP6 ADD DUP1 SLOAD PUSH1 0xFF NOT SWAP1 DUP2 AND DUP6 OR SWAP1 SWAP2 SSTORE DUP6 DUP5 ADD DUP1 SLOAD SWAP1 SWAP2 AND SWAP1 SWAP4 OR SWAP1 SWAP3 SSTORE TIMESTAMP PUSH1 0x3 DUP6 ADD SSTORE SWAP2 MLOAD DUP7 SWAP2 PUSH32 0x87969BC7FAF902221A147B95CEBA76E011C5EFB0339A0A8EE7A2BB82D9CFBBD6 SWAP2 LOG3 POP POP POP POP JUMP JUMPDEST PUSH1 0x0 DUP2 DUP2 MSTORE PUSH1 0x1 PUSH1 0x20 SWAP1 DUP2 MSTORE PUSH1 0x40 DUP1 DUP4 KECCAK256 PUSH1 0x2 DUP2 ADD SLOAD DUP5 MSTORE PUSH1 0xC DUP2 ADD SWAP1 SWAP3 MSTORE DUP3 KECCAK256 PUSH1 0x3 DUP2 ADD SLOAD PUSH1 0x5 DUP4 ADD DUP1 SLOAD SWAP4 SWAP5 SWAP3 SWAP4 SWAP2 SWAP3 SWAP1 SWAP2 PUSH2 0xE8A SWAP1 DUP5 SWAP1 PUSH2 0x13BF JUMP JUMPDEST SWAP1 SWAP2 SSTORE POP POP PUSH1 0x4 DUP2 ADD SLOAD PUSH1 0x9 DUP4 ADD DUP1 SLOAD PUSH1 0x0 SWAP1 PUSH2 0xEA8 SWAP1 DUP5 SWAP1 PUSH2 0x13BF JUMP JUMPDEST SWAP3 POP POP DUP2 SWAP1 SSTORE POP PUSH1 0x0 DUP2 PUSH1 0x4 ADD SLOAD DUP3 PUSH1 0x3 ADD SLOAD GT ISZERO PUSH2 0xEEC JUMPI PUSH1 0x6 DUP4 ADD DUP1 SLOAD SWAP1 PUSH1 0x0 PUSH2 0xED3 DUP4 PUSH2 0x13A6 JUMP JUMPDEST SWAP1 SWAP2 SSTORE POP POP POP PUSH1 0x4 DUP3 ADD SLOAD PUSH1 0x1 PUSH1 0x1 PUSH1 0xA0 SHL SUB AND PUSH2 0xF23 JUMP JUMPDEST DUP2 PUSH1 0x3 ADD SLOAD DUP3 PUSH1 0x4 ADD SLOAD GT ISZERO PUSH2 0xF23 JUMPI PUSH1 0xA DUP4 ADD DUP1 SLOAD SWAP1 PUSH1 0x0 PUSH2 0xF0E DUP4 PUSH2 0x13A6 JUMP JUMPDEST SWAP1 SWAP2 SSTORE POP POP POP PUSH1 0x8 DUP3 ADD SLOAD PUSH1 0x1 PUSH1 0x1 PUSH1 0xA0 SHL SUB AND JUMPDEST PUSH1 0x2 DUP4 ADD SLOAD PUSH1 0x3 DUP4 ADD SLOAD PUSH1 0x4 DUP5 ADD SLOAD PUSH1 0x40 DUP1 MLOAD SWAP4 DUP5 MSTORE PUSH1 0x1 PUSH1 0x1 PUSH1 0xA0 SHL SUB DUP6 AND PUSH1 0x20 DUP6 ADD MSTORE DUP4 ADD SWAP2 SWAP1 SWAP2 MSTORE PUSH1 0x60 DUP3 ADD MSTORE DUP5 SWAP1 PUSH32 0xD5D50ECBB0796A826EF966C5F52D56B36CF7FF32182B77FFAE8FCCDB72CFC8A9 SWAP1 PUSH1 0x80 ADD PUSH1 0x40 MLOAD DUP1 SWAP2 SUB SWAP1 LOG2 PUSH1 0x5 DUP4 PUSH1 0x2 ADD SLOAD LT ISZERO PUSH2 0xFAB JUMPI PUSH1 0x2 DUP4 ADD DUP1 SLOAD SWAP1 PUSH1 0x0 PUSH2 0xFA1 DUP4 PUSH2 0x13A6 JUMP JUMPDEST SWAP2 SWAP1 POP SSTORE POP PUSH2 0xFB4 JUMP JUMPDEST PUSH2 0xFB4 DUP5 PUSH2 0x1054 JUMP JUMPDEST POP POP POP POP JUMP JUMPDEST PUSH1 0x0 DUP3 PUSH1 0x1 PUSH1 0x1 PUSH1 0xA0 SHL SUB AND DUP3 PUSH1 0x40 MLOAD PUSH1 0x0 PUSH1 0x40 MLOAD DUP1 DUP4 SUB DUP2 DUP6 DUP8 GAS CALL SWAP3 POP POP POP RETURNDATASIZE DUP1 PUSH1 0x0 DUP2 EQ PUSH2 0x1007 JUMPI PUSH1 0x40 MLOAD SWAP2 POP PUSH1 0x1F NOT PUSH1 0x3F RETURNDATASIZE ADD AND DUP3 ADD PUSH1 0x40 MSTORE RETURNDATASIZE DUP3 MSTORE RETURNDATASIZE PUSH1 0x0 PUSH1 0x20 DUP5 ADD RETURNDATACOPY PUSH2 0x100C JUMP JUMPDEST PUSH1 0x60 SWAP2 POP JUMPDEST POP POP SWAP1 POP DUP1 PUSH2 0x104F JUMPI PUSH1 0x40 MLOAD PUSH3 0x461BCD PUSH1 0xE5 SHL DUP2 MSTORE PUSH1 0x20 PUSH1 0x4 DUP3 ADD MSTORE PUSH1 0xF PUSH1 0x24 DUP3 ADD MSTORE PUSH15 0x151C985B9CD9995C8819985A5B1959 PUSH1 0x8A SHL PUSH1 0x44 DUP3 ADD MSTORE PUSH1 0x64 ADD PUSH2 0x30E JUMP JUMPDEST POP POP POP JUMP JUMPDEST PUSH1 0x0 DUP2 DUP2 MSTORE PUSH1 0x1 PUSH1 0x20 DUP2 SWAP1 MSTORE PUSH1 0x40 DUP3 KECCAK256 SWAP1 DUP2 ADD DUP1 SLOAD PUSH1 0xFF NOT AND PUSH1 0x2 SWAP1 DUP2 OR SWAP1 SWAP2 SSTORE SWAP1 SWAP2 SWAP1 PUSH2 0x108C SWAP1 PUSH9 0x1158E460913D00000 SWAP1 PUSH2 0x138F JUMP JUMPDEST PUSH1 0xA DUP4 ADD SLOAD PUSH1 0x6 DUP5 ADD SLOAD SWAP2 SWAP3 POP LT ISZERO PUSH2 0x10F5 JUMPI PUSH1 0x4 DUP3 ADD SLOAD PUSH2 0x10B7 SWAP1 PUSH1 0x1 PUSH1 0x1 PUSH1 0xA0 SHL SUB AND DUP3 PUSH2 0xFBA JUMP JUMPDEST PUSH1 0x4 DUP3 ADD SLOAD PUSH1 0x40 DUP1 MLOAD PUSH1 0x1 PUSH1 0x1 PUSH1 0xA0 SHL SUB SWAP1 SWAP3 AND DUP3 MSTORE PUSH1 0x20 DUP3 ADD DUP4 SWAP1 MSTORE DUP5 SWAP2 PUSH1 0x0 DUP1 MLOAD PUSH1 0x20 PUSH2 0x13F5 DUP4 CODECOPY DUP2 MLOAD SWAP2 MSTORE SWAP2 ADD JUMPDEST PUSH1 0x40 MLOAD DUP1 SWAP2 SUB SWAP1 LOG2 POP POP POP JUMP JUMPDEST PUSH1 0x6 DUP3 ADD SLOAD PUSH1 0xA DUP4 ADD SLOAD GT ISZERO PUSH2 0x1152 JUMPI PUSH1 0x8 DUP3 ADD SLOAD PUSH2 0x111D SWAP1 PUSH1 0x1 PUSH1 0x1 PUSH1 0xA0 SHL SUB AND DUP3 PUSH2 0xFBA JUMP JUMPDEST PUSH1 0x8 DUP3 ADD SLOAD PUSH1 0x40 DUP1 MLOAD PUSH1 0x1 PUSH1 0x1 PUSH1 0xA0 SHL SUB SWAP1 SWAP3 AND DUP3 MSTORE PUSH1 0x20 DUP3 ADD DUP4 SWAP1 MSTORE DUP5 SWAP2 PUSH1 0x0 DUP1 MLOAD PUSH1 0x20 PUSH2 0x13F5 DUP4 CODECOPY DUP2 MLOAD SWAP2 MSTORE SWAP2 ADD PUSH2 0x10E8 JUMP JUMPDEST PUSH1 0x0 PUSH2 0x115F PUSH1 0x2 DUP4 PUSH2 0x13D2 JUMP JUMPDEST PUSH1 0x4 DUP5 ADD SLOAD SWAP1 SWAP2 POP PUSH2 0x117A SWAP1 PUSH1 0x1 PUSH1 0x1 PUSH1 0xA0 SHL SUB AND DUP3 PUSH2 0xFBA JUMP JUMPDEST PUSH1 0x8 DUP4 ADD SLOAD PUSH2 0x1192 SWAP1 PUSH1 0x1 PUSH1 0x1 PUSH1 0xA0 SHL SUB AND DUP3 PUSH2 0xFBA JUMP JUMPDEST DUP4 PUSH32 0xFD85F55D87F5BC0D416A295B7D542937B36A71D7445647799A1DA64F147AF087 DUP3 PUSH1 0x40 MLOAD PUSH2 0x11C4 SWAP2 DUP2 MSTORE PUSH1 0x20 ADD SWAP1 JUMP JUMPDEST PUSH1 0x40 MLOAD DUP1 SWAP2 SUB SWAP1 LOG2 POP POP POP POP JUMP JUMPDEST PUSH1 0x0 PUSH1 0x20 DUP3 DUP5 SUB SLT ISZERO PUSH2 0x11E4 JUMPI PUSH1 0x0 DUP1 REVERT JUMPDEST POP CALLDATALOAD SWAP2 SWAP1 POP JUMP JUMPDEST PUSH4 0x4E487B71 PUSH1 0xE0 SHL PUSH1 0x0 MSTORE PUSH1 0x21 PUSH1 0x4 MSTORE PUSH1 0x24 PUSH1 0x0 REVERT JUMPDEST DUP7 DUP2 MSTORE PUSH2 0x180 DUP2 ADD PUSH1 0x3 DUP8 LT PUSH2 0x1227 JUMPI PUSH4 0x4E487B71 PUSH1 0xE0 SHL PUSH1 0x0 MSTORE PUSH1 0x21 PUSH1 0x4 MSTORE PUSH1 0x24 PUSH1 0x0 REVERT JUMPDEST DUP7 PUSH1 0x20 DUP4 ADD MSTORE DUP6 PUSH1 0x40 DUP4 ADD MSTORE DUP5 PUSH1 0x60 DUP4 ADD MSTORE PUSH2 0x126F PUSH1 0x80 DUP4 ADD DUP6 DUP1 MLOAD PUSH1 0x1 PUSH1 0x1 PUSH1 0xA0 SHL SUB AND DUP3 MSTORE PUSH1 0x20 DUP1 DUP3 ADD MLOAD SWAP1 DUP4 ADD MSTORE PUSH1 0x40 DUP1 DUP3 ADD MLOAD SWAP1 DUP4 ADD MSTORE PUSH1 0x60 SWAP1 DUP2 ADD MLOAD ISZERO ISZERO SWAP2 ADD MSTORE JUMP JUMPDEST DUP3 MLOAD PUSH1 0x1 PUSH1 0x1 PUSH1 0xA0 SHL SUB AND PUSH2 0x100 DUP4 ADD MSTORE PUSH1 0x20 DUP4 ADD MLOAD PUSH2 0x120 DUP4 ADD MSTORE PUSH1 0x40 DUP4 ADD MLOAD PUSH2 0x140 DUP4 ADD MSTORE PUSH1 0x60 DUP4 ADD MLOAD ISZERO ISZERO PUSH2 0x160 DUP4 ADD MSTORE SWAP8 SWAP7 POP POP POP POP POP POP POP JUMP JUMPDEST PUSH1 0x0 DUP1 PUSH1 0x0 PUSH1 0x60 DUP5 DUP7 SUB SLT ISZERO PUSH2 0x12C3 JUMPI PUSH1 0x0 DUP1 REVERT JUMPDEST POP POP DUP2 CALLDATALOAD SWAP4 PUSH1 0x20 DUP4 ADD CALLDATALOAD SWAP4 POP PUSH1 0x40 SWAP1 SWAP3 ADD CALLDATALOAD SWAP2 SWAP1 POP JUMP JUMPDEST PUSH1 0x0 DUP1 PUSH1 0x40 DUP4 DUP6 SUB SLT ISZERO PUSH2 0x12ED JUMPI PUSH1 0x0 DUP1 REVERT JUMPDEST POP POP DUP1 CALLDATALOAD SWAP3 PUSH1 0x20 SWAP1 SWAP2 ADD CALLDATALOAD SWAP2 POP JUMP JUMPDEST PUSH1 0x20 DUP1 DUP3 MSTORE PUSH1 0x13 SWAP1 DUP3 ADD MSTORE PUSH19 0x496E76616C6964206D61746368207374617465 PUSH1 0x68 SHL PUSH1 0x40 DUP3 ADD MSTORE PUSH1 0x60 ADD SWAP1 JUMP JUMPDEST PUSH1 0x20 DUP1 DUP3 MSTORE PUSH1 0x1F SWAP1 DUP3 ADD MSTORE PUSH32 0x5265656E7472616E637947756172643A207265656E7472616E742063616C6C00 PUSH1 0x40 DUP3 ADD MSTORE PUSH1 0x60 ADD SWAP1 JUMP JUMPDEST PUSH4 0x4E487B71 PUSH1 0xE0 SHL PUSH1 0x0 MSTORE PUSH1 0x11 PUSH1 0x4 MSTORE PUSH1 0x24 PUSH1 0x0 REVERT JUMPDEST DUP1 DUP3 ADD DUP1 DUP3 GT ISZERO PUSH2 0x1389 JUMPI PUSH2 0x1389 PUSH2 0x1360 JUMP JUMPDEST SWAP3 SWAP2 POP POP JUMP JUMPDEST DUP1 DUP3 MUL DUP2 ISZERO DUP3 DUP3 DIV DUP5 EQ OR PUSH2 0x1389 JUMPI PUSH2 0x1389 PUSH2 0x1360 JUMP JUMPDEST PUSH1 0x0 PUSH1 0x1 DUP3 ADD PUSH2 0x13B8 JUMPI PUSH2 0x13B8 PUSH2 0x1360 JUMP JUMPDEST POP PUSH1 0x1 ADD SWAP1 JUMP JUMPDEST DUP2 DUP2 SUB DUP2 DUP2 GT ISZERO PUSH2 0x1389 JUMPI PUSH2 0x1389 PUSH2 0x1360 JUMP JUMPDEST PUSH1 0x0 DUP3 PUSH2 0x13EF JUMPI PUSH4 0x4E487B71 PUSH1 0xE0 SHL PUSH1 0x0 MSTORE PUSH1 0x12 PUSH1 0x4 MSTORE PUSH1 0x24 PUSH1 0x0 REVERT JUMPDEST POP DIV SWAP1 JUMP INVALID 0xF7 SWAP5 ISZERO PUSH22 0x935CBB66993B36C83981A3FC6DF73F88CE282DDFDC9B 0xC4 0x1E BLOCKHASH PUSH22 0x6A11A2646970667358221220040354CD8E541DE05262 0x1F 0x2E CALL 0xB2 PUSH3 0x2A10E8 0xC2 BLOCKHASH 0xE1 0x27 PUSH29 0xE92BAAE643F8320BF564736F6C63430008180033000000000000000000 "},"methodIdentifiers":{"MATCH_DEPOSIT()":"36d9a8fa","MAX_BID()":"4d91e1f7","MOVE_TIMEOUT()":"6a07dc12","TOTAL_ROUNDS()":"ce8dc388","cancelMatch(uint256)":"d02c8cdf","claimTimeout(uint256)":"86e773f1","commitBid(uint256,bytes32)":"9468cb61","createMatch()":"a0cc641a","joinMatch(uint256)":"feb8c438","matchIdCounter()":"4fdc2fb4","matches(uint256)":"4768d4ef","revealBid(uint256,uint256,bytes32)":"4d380a0d"}}}}}