{
  "_format": "hh-sol-artifact-1",
  "contractName": "BluffBid",
  "sourceName": "contracts/BluffBid.sol",
  "abi": [
    {
      "anonymous": false,
      "inputs": [
        {
          "indexed": true,
          "internalType": "uint256",
          "name": "matchId",
          "type": "uint256"
        },
        {
          "indexed": false,
          "internalType": "uint256",
          "name": "round",
          "type": "uint256"
        },
        {
          "indexed": true,
          "internalType": "address",
          "name": "player",
          "type": "address"
        }
      ],
      "name": "BidCommitted",
      "type": "event"
    },
    {
      "anonymous": false,
      "inputs": [
        {
          "indexed": true,
          "internalType": "uint256",
          "name": "matchId",
          "type": "uint256"
        },
        {
          "indexed": false,
          "internalType": "uint256",
          "name": "round",
          "type": "uint256"
        },
        {
          "indexed": true,
          "internalType": "address",
          "name": "player",
          "type": "address"
        },
        {
          "indexed": false,
          "internalType": "uint256",
          "name": "bid",
          "type": "uint256"
        }
      ],
      "name": "BidRevealed",
      "type": "event"
    },
    {
      "anonymous": false,
      "inputs": [
        {
          "indexed": true,
          "internalType": "uint256",
          "name": "matchId",
          "type": "uint256"
        },
        {
          "indexed": true,
          "internalType": "address",
          "name": "creator",
          "type": "address"
        }
      ],
      "name": "MatchCreated",
      "type": "event"
    },
    {
      "anonymous": false,
      "inputs": [
        {
          "indexed": true,
          "internalType": "uint256",
          "name": "matchId",
          "type": "uint256"
        },
        {
          "indexed": false,
          "internalType": "address",
          "name": "winner",
          "type": "address"
        },
        {
          "indexed": false,
          "internalType": "uint256",
          "name": "payout",
          "type": "uint256"
        }
      ],
      "name": "MatchEnded",
      "type": "event"
    },
    {
      "anonymous": false,
      "inputs": [
        {
          "indexed": true,
          "internalType": "uint256",
          "name": "matchId",
          "type": "uint256"
        },
        {
          "indexed": false,
          "internalType": "uint256",
          "name": "payoutEach",
          "type": "uint256"
        }
      ],
      "name": "MatchTied",
      "type": "event"
    },
    {
      "anonymous": false,
      "inputs": [
        {
          "indexed": true,
          "internalType": "uint256",
          "name": "matchId",
          "type": "uint256"
        },
        {
          "indexed": true,
          "internalType": "address",
          "name": "joiner",
          "type": "address"
        }
      ],
      "name": "PlayerJoined",
      "type": "event"
    },
    {
      "anonymous": false,
      "inputs": [
        {
          "indexed": true,
          "internalType": "uint256",
          "name": "matchId",
          "type": "uint256"
        },
        {
          "indexed": false,
          "internalType": "uint256",
          "name": "round",
          "type": "uint256"
        },
        {
          "indexed": false,
          "internalType": "address",
          "name": "winner",
          "type": "address"
        },
        {
          "indexed": false,
          "internalType": "uint256",
          "name": "p1Bid",
          "type": "uint256"
        },
        {
          "indexed": false,
          "internalType": "uint256",
          "name": "p2Bid",
          "type": "uint256"
        }
      ],
      "name": "RoundResolved",
      "type": "event"
    },
    {
      "inputs": [],
      "name": "MATCH_DEPOSIT",
      "outputs": [
        {
          "internalType": "uint256",
          "name": "",
          "type": "uint256"
        }
      ],
      "stateMutability": "view",
      "type": "function"
    },
    {
      "inputs": [],
      "name": "MAX_BID",
      "outputs": [
        {
          "internalType": "uint256",
          "name": "",
          "type": "uint256"
        }
      ],
      "stateMutability": "view",
      "type": "function"
    },
    {
      "inputs": [],
      "name": "MOVE_TIMEOUT",
      "outputs": [
        {
          "internalType": "uint256",
          "name": "",
          "type": "uint256"
        }
      ],
      "stateMutability": "view",
      "type": "function"
    },
    {
      "inputs": [],
      "name": "STARTING_BALANCE",
      "outputs": [
        {
          "internalType": "uint256",
          "name": "",
          "type": "uint256"
        }
      ],
      "stateMutability": "view",
      "type": "function"
    },
    {
      "inputs": [],
      "name": "TOTAL_ROUNDS",
      "outputs": [
        {
          "internalType": "uint256",
          "name": "",
          "type": "uint256"
        }
      ],
      "stateMutability": "view",
      "type": "function"
    },
    {
      "inputs": [
        {
          "internalType": "uint256",
          "name": "_matchId",
          "type": "uint256"
        }
      ],
      "name": "cancelMatch",
      "outputs": [],
      "stateMutability": "nonpayable",
      "type": "function"
    },
    {
      "inputs": [
        {
          "internalType": "uint256",
          "name": "_matchId",
          "type": "uint256"
        }
      ],
      "name": "claimTimeout",
      "outputs": [],
      "stateMutability": "nonpayable",
      "type": "function"
    },
    {
      "inputs": [
        {
          "internalType": "uint256",
          "name": "_matchId",
          "type": "uint256"
        },
        {
          "internalType": "bytes32",
          "name": "_commitment",
          "type": "bytes32"
        }
      ],
      "name": "commitBid",
      "outputs": [],
      "stateMutability": "nonpayable",
      "type": "function"
    },
    {
      "inputs": [],
      "name": "createMatch",
      "outputs": [
        {
          "internalType": "uint256",
          "name": "matchId",
          "type": "uint256"
        }
      ],
      "stateMutability": "payable",
      "type": "function"
    },
    {
      "inputs": [
        {
          "internalType": "uint256",
          "name": "_matchId",
          "type": "uint256"
        }
      ],
      "name": "joinMatch",
      "outputs": [],
      "stateMutability": "payable",
      "type": "function"
    },
    {
      "inputs": [],
      "name": "matchIdCounter",
      "outputs": [
        {
          "internalType": "uint256",
          "name": "",
          "type": "uint256"
        }
      ],
      "stateMutability": "view",
      "type": "function"
    },
    {
      "inputs": [
        {
          "internalType": "uint256",
          "name": "",
          "type": "uint256"
        }
      ],
      "name": "matches",
      "outputs": [
        {
          "internalType": "uint256",
          "name": "id",
          "type": "uint256"
        },
        {
          "internalType": "enum BluffBid.MatchStatus",
          "name": "status",
          "type": "uint8"
        },
        {
          "internalType": "uint256",
          "name": "currentRound",
          "type": "uint256"
        },
        {
          "internalType": "uint256",
          "name": "lastActionTime",
          "type": "uint256"
        },
        {
          "components": [
            {
              "internalType": "address",
              "name": "addr",
              "type": "address"
            },
            {
              "internalType": "uint256",
              "name": "balance",
              "type": "uint256"
            },
            {
              "internalType": "uint256",
              "name": "wins",
              "type": "uint256"
            },
            {
              "internalType": "bool",
              "name": "isActive",
              "type": "bool"
            }
          ],
          "internalType": "struct BluffBid.PlayerState",
          "name": "player1",
          "type": "tuple"
        },
        {
          "components": [
            {
              "internalType": "address",
              "name": "addr",
              "type": "address"
            },
            {
              "internalType": "uint256",
              "name": "balance",
              "type": "uint256"
            },
            {
              "internalType": "uint256",
              "name": "wins",
              "type": "uint256"
            },
            {
              "internalType": "bool",
              "name": "isActive",
              "type": "bool"
            }
          ],
          "internalType": "struct BluffBid.PlayerState",
          "name": "player2",
          "type": "tuple"
        }
      ],
      "stateMutability": "view",
      "type": "function"
    },
    {
      "inputs": [
        {
          "internalType": "uint256",
          "name": "_matchId",
          "type": "uint256"
        },
        {
          "internalType": "uint256",
          "name": "_bid",
          "type": "uint256"
        },
        {
          "internalType": "bytes32",
          "name": "_salt",
          "type": "bytes32"
        }
      ],
      "name": "revealBid",
      "outputs": [],
      "stateMutability": "nonpayable",
      "type": "function"
    }
  ],
  "bytecode": "0x608060405234801561001057600080fd5b50611479806100206000396000f3fe6080604052600436106100c25760003560e01c806386e773f11161007f578063ce8dc38811610059578063ce8dc3881461027b578063d02c8cdf14610290578063feb8c438146102b0578063feca19d9146102c357600080fd5b806386e773f1146102335780639468cb6114610253578063a0cc641a1461027357600080fd5b806336d9a8fa146100c75780634768d4ef146100f65780634d380a0d146101cf5780634d91e1f7146101f15780634fdc2fb4146102065780636a07dc121461021c575b600080fd5b3480156100d357600080fd5b506100e3673782dace9d90000081565b6040519081526020015b60405180910390f35b34801561010257600080fd5b506101bd610111366004611201565b6001602081815260009283526040928390208054928101546002820154600383015486516080808201895260048601546001600160a01b0390811683526005870154838901526006870154838b0152600787015460ff90811615156060808601919091528b519384018c5260088901549092168352600988015498830198909852600a87015499820199909952600b909501548616151597850197909752949593909116939092909186565b6040516100ed96959493929190611230565b3480156101db57600080fd5b506101ef6101ea3660046112dd565b6102d8565b005b3480156101fd57600080fd5b506100e3601981565b34801561021257600080fd5b506100e360005481565b34801561022857600080fd5b506100e36201518081565b34801561023f57600080fd5b506101ef61024e366004611201565b610760565b34801561025f57600080fd5b506101ef61026e366004611309565b6108a9565b6100e3610aac565b34801561028757600080fd5b506100e3600581565b34801561029c57600080fd5b506101ef6102ab366004611201565b610bc3565b6101ef6102be366004611201565b610ced565b3480156102cf57600080fd5b506100e3602881565b60008381526001602052604090206004015483906001600160a01b031633148061031b57506000818152600160205260409020600801546001600160a01b031633145b61035b5760405162461bcd60e51b815260206004820152600c60248201526b2737ba103090383630bcb2b960a11b60448201526064015b60405180910390fd5b836001806000838152600160208190526040909120015460ff1660028111156103865761038661121a565b146103a35760405162461bcd60e51b81526004016103529061132b565b60025460ff16156103c65760405162461bcd60e51b815260040161035290611358565b6002805460ff191660019081178255600088815260209182526040808220938401548252600c840190925220805460ff16801561040957508054610100900460ff165b6104485760405162461bcd60e51b815260206004820152601060248201526f5761697420666f7220636f6d6d69747360801b6044820152606401610352565b60198711156104885760405162461bcd60e51b815260206004820152600c60248201526b084d2c840e8dede40d0d2ced60a31b6044820152606401610352565b60048201546001600160a01b031633036105ba57805462010000900460ff16156104e75760405162461bcd60e51b815260206004820152601060248201526f105b1c9958591e481c995d99585b195960821b6044820152606401610352565b600181015460408051602081018a905290810188905260600160405160208183030381529060405280519060200120146105545760405162461bcd60e51b815260206004820152600e60248201526d125b9d985b1a59081c995d99585b60921b6044820152606401610352565b600582015487111561059f5760405162461bcd60e51b8152602060048201526014602482015273496e73756666696369656e742062616c616e636560601b6044820152606401610352565b60038101879055805462ff00001916620100001781556106d7565b80546301000000900460ff16156106065760405162461bcd60e51b815260206004820152601060248201526f105b1c9958591e481c995d99585b195960821b6044820152606401610352565b600281015460408051602081018a905290810188905260600160405160208183030381529060405280519060200120146106735760405162461bcd60e51b815260206004820152600e60248201526d125b9d985b1a59081c995d99585b60921b6044820152606401610352565b60098201548711156106be5760405162461bcd60e51b8152602060048201526014602482015273496e73756666696369656e742062616c616e636560601b6044820152606401610352565b60048101879055805463ff000000191663010000001781555b4260038301556002820154604080519182526020820189905233918a917fba834bd29b9c83bed0d9d44ea4d24baaf635bead31040df74304eccaec08a928910160405180910390a3805462010000900460ff16801561073e575080546301000000900460ff165b1561074c5761074c88610e7b565b50506002805460ff19169055505050505050565b60025460ff16156107835760405162461bcd60e51b815260040161035290611358565b6002805460ff191660019081179091558190806000838152600160208190526040909120015460ff1660028111156107bd576107bd61121a565b146107da5760405162461bcd60e51b81526004016103529061132b565b600083815260016020526040902060038101546107fb9062015180906113a5565b421161083f5760405162461bcd60e51b8152602060048201526013602482015272151a5b595bdd5d081b9bdd081c995858da1959606a1b6044820152606401610352565b6000610854673782dace9d90000060026113be565b60018301805460ff19166002179055905061086f3382610fea565b60408051338152602081018390528691600080516020611424833981519152910160405180910390a250506002805460ff19169055505050565b60008281526001602052604090206004015482906001600160a01b03163314806108ec57506000818152600160205260409020600801546001600160a01b031633145b6109275760405162461bcd60e51b815260206004820152600c60248201526b2737ba103090383630bcb2b960a11b6044820152606401610352565b826001806000838152600160208190526040909120015460ff1660028111156109525761095261121a565b1461096f5760405162461bcd60e51b81526004016103529061132b565b600085815260016020908152604080832060028101548452600c810190925290912060048201546001600160a01b03163303610a0157805460ff16156109eb5760405162461bcd60e51b8152602060048201526011602482015270105b1c9958591e4818dbdb5b5a5d1d1959607a1b6044820152606401610352565b6001808201879055815460ff1916178155610a61565b8054610100900460ff1615610a4c5760405162461bcd60e51b8152602060048201526011602482015270105b1c9958591e4818dbdb5b5a5d1d1959607a1b6044820152606401610352565b60028101869055805461ff0019166101001781555b4260038301556002820154604051908152339088907ffc72b48edff9df7ca66d669e3b2ad693ae2c5d6381c95d89b2b2c01c42e7a1779060200160405180910390a350505050505050565b6000673782dace9d9000003414610af95760405162461bcd60e51b8152602060048201526011602482015270125b98dbdc9c9958dd0819195c1bdcda5d607a1b6044820152606401610352565b600080549080610b08836113d5565b909155505060008054808252600160208181526040808520848155808401805460ff1990811690915560028201859055426003830155825160808101845233808252602895820186905281850189905260609091018690526004830180546001600160a01b03191682179055600583019490945560068201879055600782018054909116909417909355519294509092909184917f18a47d8df22f178f89e665cc0fccf4ee175e91434c7b749c4a7607ffa4d33a6791a35090565b60025460ff1615610be65760405162461bcd60e51b815260040161035290611358565b6002805460ff19166001179055806000806000838152600160208190526040909120015460ff166002811115610c1e57610c1e61121a565b14610c3b5760405162461bcd60e51b81526004016103529061132b565b600083815260016020526040902060048101546001600160a01b03163314610c935760405162461bcd60e51b815260206004820152600b60248201526a2737ba1031b932b0ba37b960a91b6044820152606401610352565b60018101805460ff19166002179055610cb433673782dace9d900000610fea565b60408051600080825260208201528591600080516020611424833981519152910160405180910390a250506002805460ff191690555050565b806000806000838152600160208190526040909120015460ff166002811115610d1857610d1861121a565b14610d355760405162461bcd60e51b81526004016103529061132b565b673782dace9d9000003414610d805760405162461bcd60e51b8152602060048201526011602482015270125b98dbdc9c9958dd0819195c1bdcda5d607a1b6044820152606401610352565b600083815260016020526040902060048101546001600160a01b03163303610ddd5760405162461bcd60e51b815260206004820152601060248201526f43616e6e6f742073656c662d706c617960801b6044820152606401610352565b60408051608081018252338082526028602083018190526000838501819052600160609094018490526008860180546001600160a01b031916841790556009860191909155600a8501819055600b8501805460ff1990811685179091558584018054909116909317909255426003850155915186917f87969bc7faf902221a147b95ceba76e011c5efb0339a0a8ee7a2bb82d9cfbbd691a350505050565b600081815260016020908152604080832060028101548452600c8101909252822060038101546005830180549394929391929091610eba9084906113ee565b90915550506004810154600983018054600090610ed89084906113ee565b925050819055506000816004015482600301541115610f1c57600683018054906000610f03836113d5565b90915550505060048201546001600160a01b0316610f53565b816003015482600401541115610f5357600a83018054906000610f3e836113d5565b90915550505060088201546001600160a01b03165b600283015460038301546004840154604080519384526001600160a01b0385166020850152830191909152606082015284907fd5d50ecbb0796a826ef966c5f52d56b36cf7ff32182b77ffae8fccdb72cfc8a99060800160405180910390a2600583600201541015610fdb57600283018054906000610fd1836113d5565b9190505550610fe4565b610fe484611084565b50505050565b6000826001600160a01b03168260405160006040518083038185875af1925050503d8060008114611037576040519150601f19603f3d011682016040523d82523d6000602084013e61103c565b606091505b505090508061107f5760405162461bcd60e51b815260206004820152600f60248201526e151c985b9cd9995c8819985a5b1959608a1b6044820152606401610352565b505050565b60008181526001602081905260408220908101805460ff191660029081179091559091906110bb90673782dace9d900000906113be565b600a830154600684015491925010156111245760048201546110e6906001600160a01b031682610fea565b6004820154604080516001600160a01b03909216825260208201839052849160008051602061142483398151915291015b60405180910390a2505050565b6006820154600a830154111561118157600882015461114c906001600160a01b031682610fea565b6008820154604080516001600160a01b0390921682526020820183905284916000805160206114248339815191529101611117565b600061118e600283611401565b60048401549091506111a9906001600160a01b031682610fea565b60088301546111c1906001600160a01b031682610fea565b837ffd85f55d87f5bc0d416a295b7d542937b36a71d7445647799a1da64f147af087826040516111f391815260200190565b60405180910390a250505050565b60006020828403121561121357600080fd5b5035919050565b634e487b7160e01b600052602160045260246000fd5b86815261018081016003871061125657634e487b7160e01b600052602160045260246000fd5b86602083015285604083015284606083015261129e608083018580516001600160a01b0316825260208082015190830152604080820151908301526060908101511515910152565b82516001600160a01b03166101008301526020830151610120830152604083015161014083015260608301511515610160830152979650505050505050565b6000806000606084860312156112f257600080fd5b505081359360208301359350604090920135919050565b6000806040838503121561131c57600080fd5b50508035926020909101359150565b602080825260139082015272496e76616c6964206d6174636820737461746560681b604082015260600190565b6020808252601f908201527f5265656e7472616e637947756172643a207265656e7472616e742063616c6c00604082015260600190565b634e487b7160e01b600052601160045260246000fd5b808201808211156113b8576113b861138f565b92915050565b80820281158282048414176113b8576113b861138f565b6000600182016113e7576113e761138f565b5060010190565b818103818111156113b8576113b861138f565b60008261141e57634e487b7160e01b600052601260045260246000fd5b50049056fef7941575935cbb66993b36c83981a3fc6df73f88ce282ddfdc9bc41e40756a11a2646970667358221220c048f0d748ed3f666446a855b05225190c7f83e758be82d63e63c4ecb20db89064736f6c63430008180033",
  "linkReferences": {},
  "deployedLinkReferences": {}
}