{
  "_format": "hh-sol-artifact-1",
  "contractName": "BluffBid",
  "sourceName": "contracts/BluffBid.sol",
  "abi": [
    {
      "anonymous": false,
      "inputs": [
        {
          "indexed": true,
          "internalType": "uint256",
          "name": "matchId",
          "type": "uint256"
        },
        {
          "indexed": false,
          "internalType": "uint256",
          "name": "round",
          "type": "uint256"
        },
        {
          "indexed": true,
          "internalType": "address",
          "name": "player",
          "type": "address"
        }
      ],
      "name": "BidCommitted",
      "type": "event"
    },
    {
      "anonymous": false,
      "inputs": [
        {
          "indexed": true,
          "internalType": "uint256",
          "name": "matchId",
          "type": "uint256"
        },
        {
          "indexed": false,
          "internalType": "uint256",
          "name": "round",
          "type": "uint256"
        },
        {
          "indexed": true,
          "internalType": "address",
          "name": "player",
          "type": "address"
        },
        {
          "indexed": false,
          "internalType": "uint256",
          "name": "bid",
          "type": "uint256"
        }
      ],
      "name": "BidRevealed",
      "type": "event"
    },
    {
      "anonymous": false,
      "inputs": [
        {
          "indexed": true,
          "internalType": "uint256",
          "name": "matchId",
          "type": "uint256"
        },
        {
          "indexed": true,
          "internalType": "address",
          "name": "creator",
          "type": "address"
        }
      ],
      "name": "MatchCreated",
      "type": "event"
    },
    {
      "anonymous": false,
      "inputs": [
        {
          "indexed": true,
          "internalType": "uint256",
          "name": "matchId",
          "type": "uint256"
        },
        {
          "indexed": false,
          "internalType": "address",
          "name": "winner",
          "type": "address"
        },
        {
          "indexed": false,
          "internalType": "uint256",
          "name": "payout",
          "type": "uint256"
        }
      ],
      "name": "MatchEnded",
      "type": "event"
    },
    {
      "anonymous": false,
      "inputs": [
        {
          "indexed": true,
          "internalType": "uint256",
          "name": "matchId",
          "type": "uint256"
        },
        {
          "indexed": false,
          "internalType": "uint256",
          "name": "payoutEach",
          "type": "uint256"
        }
      ],
      "name": "MatchTied",
      "type": "event"
    },
    {
      "anonymous": false,
      "inputs": [
        {
          "indexed": true,
          "internalType": "uint256",
          "name": "matchId",
          "type": "uint256"
        },
        {
          "indexed": true,
          "internalType": "address",
          "name": "joiner",
          "type": "address"
        }
      ],
      "name": "PlayerJoined",
      "type": "event"
    },
    {
      "anonymous": false,
      "inputs": [
        {
          "indexed": true,
          "internalType": "uint256",
          "name": "matchId",
          "type": "uint256"
        },
        {
          "indexed": false,
          "internalType": "uint256",
          "name": "round",
          "type": "uint256"
        },
        {
          "indexed": false,
          "internalType": "address",
          "name": "winner",
          "type": "address"
        },
        {
          "indexed": false,
          "internalType": "uint256",
          "name": "p1Bid",
          "type": "uint256"
        },
        {
          "indexed": false,
          "internalType": "uint256",
          "name": "p2Bid",
          "type": "uint256"
        }
      ],
      "name": "RoundResolved",
      "type": "event"
    },
    {
      "inputs": [],
      "name": "MATCH_DEPOSIT",
      "outputs": [
        {
          "internalType": "uint256",
          "name": "",
          "type": "uint256"
        }
      ],
      "stateMutability": "view",
      "type": "function"
    },
    {
      "inputs": [],
      "name": "MAX_BID",
      "outputs": [
        {
          "internalType": "uint256",
          "name": "",
          "type": "uint256"
        }
      ],
      "stateMutability": "view",
      "type": "function"
    },
    {
      "inputs": [],
      "name": "MOVE_TIMEOUT",
      "outputs": [
        {
          "internalType": "uint256",
          "name": "",
          "type": "uint256"
        }
      ],
      "stateMutability": "view",
      "type": "function"
    },
    {
      "inputs": [],
      "name": "TOTAL_ROUNDS",
      "outputs": [
        {
          "internalType": "uint256",
          "name": "",
          "type": "uint256"
        }
      ],
      "stateMutability": "view",
      "type": "function"
    },
    {
      "inputs": [
        {
          "internalType": "uint256",
          "name": "_matchId",
          "type": "uint256"
        }
      ],
      "name": "cancelMatch",
      "outputs": [],
      "stateMutability": "nonpayable",
      "type": "function"
    },
    {
      "inputs": [
        {
          "internalType": "uint256",
          "name": "_matchId",
          "type": "uint256"
        }
      ],
      "name": "claimTimeout",
      "outputs": [],
      "stateMutability": "nonpayable",
      "type": "function"
    },
    {
      "inputs": [
        {
          "internalType": "uint256",
          "name": "_matchId",
          "type": "uint256"
        },
        {
          "internalType": "bytes32",
          "name": "_commitment",
          "type": "bytes32"
        }
      ],
      "name": "commitBid",
      "outputs": [],
      "stateMutability": "nonpayable",
      "type": "function"
    },
    {
      "inputs": [],
      "name": "createMatch",
      "outputs": [
        {
          "internalType": "uint256",
          "name": "matchId",
          "type": "uint256"
        }
      ],
      "stateMutability": "payable",
      "type": "function"
    },
    {
      "inputs": [
        {
          "internalType": "uint256",
          "name": "_matchId",
          "type": "uint256"
        }
      ],
      "name": "joinMatch",
      "outputs": [],
      "stateMutability": "payable",
      "type": "function"
    },
    {
      "inputs": [],
      "name": "matchIdCounter",
      "outputs": [
        {
          "internalType": "uint256",
          "name": "",
          "type": "uint256"
        }
      ],
      "stateMutability": "view",
      "type": "function"
    },
    {
      "inputs": [
        {
          "internalType": "uint256",
          "name": "",
          "type": "uint256"
        }
      ],
      "name": "matches",
      "outputs": [
        {
          "internalType": "uint256",
          "name": "id",
          "type": "uint256"
        },
        {
          "internalType": "enum BluffBid.MatchStatus",
          "name": "status",
          "type": "uint8"
        },
        {
          "internalType": "uint256",
          "name": "currentRound",
          "type": "uint256"
        },
        {
          "internalType": "uint256",
          "name": "lastActionTime",
          "type": "uint256"
        },
        {
          "components": [
            {
              "internalType": "address",
              "name": "addr",
              "type": "address"
            },
            {
              "internalType": "uint256",
              "name": "balance",
              "type": "uint256"
            },
            {
              "internalType": "uint256",
              "name": "wins",
              "type": "uint256"
            },
            {
              "internalType": "bool",
              "name": "isActive",
              "type": "bool"
            }
          ],
          "internalType": "struct BluffBid.PlayerState",
          "name": "player1",
          "type": "tuple"
        },
        {
          "components": [
            {
              "internalType": "address",
              "name": "addr",
              "type": "address"
            },
            {
              "internalType": "uint256",
              "name": "balance",
              "type": "uint256"
            },
            {
              "internalType": "uint256",
              "name": "wins",
              "type": "uint256"
            },
            {
              "internalType": "bool",
              "name": "isActive",
              "type": "bool"
            }
          ],
          "internalType": "struct BluffBid.PlayerState",
          "name": "player2",
          "type": "tuple"
        }
      ],
      "stateMutability": "view",
      "type": "function"
    },
    {
      "inputs": [
        {
          "internalType": "uint256",
          "name": "_matchId",
          "type": "uint256"
        },
        {
          "internalType": "uint256",
          "name": "_bid",
          "type": "uint256"
        },
        {
          "internalType": "bytes32",
          "name": "_salt",
          "type": "bytes32"
        }
      ],
      "name": "revealBid",
      "outputs": [],
      "stateMutability": "nonpayable",
      "type": "function"
    }
  ],
  "bytecode": "0x608060405234801561001057600080fd5b5061144a806100206000396000f3fe6080604052600436106100a75760003560e01c806386e773f11161006457806386e773f1146102195780639468cb6114610239578063a0cc641a14610259578063ce8dc388146101d7578063d02c8cdf14610261578063feb8c4381461028157600080fd5b806336d9a8fa146100ac5780634768d4ef146100dc5780634d380a0d146101b55780634d91e1f7146101d75780634fdc2fb4146101ec5780636a07dc1214610202575b600080fd5b3480156100b857600080fd5b506100c96801158e460913d0000081565b6040519081526020015b60405180910390f35b3480156100e857600080fd5b506101a36100f73660046111d2565b6001602081815260009283526040928390208054928101546002820154600383015486516080808201895260048601546001600160a01b0390811683526005870154838901526006870154838b0152600787015460ff90811615156060808601919091528b519384018c5260088901549092168352600988015498830198909852600a87015499820199909952600b909501548616151597850197909752949593909116939092909186565b6040516100d396959493929190611201565b3480156101c157600080fd5b506101d56101d03660046112ae565b610294565b005b3480156101e357600080fd5b506100c9600581565b3480156101f857600080fd5b506100c960005481565b34801561020e57600080fd5b506100c96201518081565b34801561022557600080fd5b506101d56102343660046111d2565b61071c565b34801561024557600080fd5b506101d56102543660046112da565b610866565b6100c9610a69565b34801561026d57600080fd5b506101d561027c3660046111d2565b610b89565b6101d561028f3660046111d2565b610cb4565b60008381526001602052604090206004015483906001600160a01b03163314806102d757506000818152600160205260409020600801546001600160a01b031633145b6103175760405162461bcd60e51b815260206004820152600c60248201526b2737ba103090383630bcb2b960a11b60448201526064015b60405180910390fd5b836001806000838152600160208190526040909120015460ff166002811115610342576103426111eb565b1461035f5760405162461bcd60e51b815260040161030e906112fc565b60025460ff16156103825760405162461bcd60e51b815260040161030e90611329565b6002805460ff191660019081178255600088815260209182526040808220938401548252600c840190925220805460ff1680156103c557508054610100900460ff165b6104045760405162461bcd60e51b815260206004820152601060248201526f5761697420666f7220636f6d6d69747360801b604482015260640161030e565b60058711156104445760405162461bcd60e51b815260206004820152600c60248201526b084d2c840e8dede40d0d2ced60a31b604482015260640161030e565b60048201546001600160a01b0316330361057657805462010000900460ff16156104a35760405162461bcd60e51b815260206004820152601060248201526f105b1c9958591e481c995d99585b195960821b604482015260640161030e565b600181015460408051602081018a905290810188905260600160405160208183030381529060405280519060200120146105105760405162461bcd60e51b815260206004820152600e60248201526d125b9d985b1a59081c995d99585b60921b604482015260640161030e565b600582015487111561055b5760405162461bcd60e51b8152602060048201526014602482015273496e73756666696369656e742062616c616e636560601b604482015260640161030e565b60038101879055805462ff0000191662010000178155610693565b80546301000000900460ff16156105c25760405162461bcd60e51b815260206004820152601060248201526f105b1c9958591e481c995d99585b195960821b604482015260640161030e565b600281015460408051602081018a9052908101889052606001604051602081830303815290604052805190602001201461062f5760405162461bcd60e51b815260206004820152600e60248201526d125b9d985b1a59081c995d99585b60921b604482015260640161030e565b600982015487111561067a5760405162461bcd60e51b8152602060048201526014602482015273496e73756666696369656e742062616c616e636560601b604482015260640161030e565b60048101879055805463ff000000191663010000001781555b4260038301556002820154604080519182526020820189905233918a917fba834bd29b9c83bed0d9d44ea4d24baaf635bead31040df74304eccaec08a928910160405180910390a3805462010000900460ff1680156106fa575080546301000000900460ff165b156107085761070888610e4b565b50506002805460ff19169055505050505050565b60025460ff161561073f5760405162461bcd60e51b815260040161030e90611329565b6002805460ff191660019081179091558190806000838152600160208190526040909120015460ff166002811115610779576107796111eb565b146107965760405162461bcd60e51b815260040161030e906112fc565b600083815260016020526040902060038101546107b7906201518090611376565b42116107fb5760405162461bcd60e51b8152602060048201526013602482015272151a5b595bdd5d081b9bdd081c995858da1959606a1b604482015260640161030e565b60006108116801158e460913d00000600261138f565b60018301805460ff19166002179055905061082c3382610fba565b604080513381526020810183905286916000805160206113f5833981519152910160405180910390a250506002805460ff19169055505050565b60008281526001602052604090206004015482906001600160a01b03163314806108a957506000818152600160205260409020600801546001600160a01b031633145b6108e45760405162461bcd60e51b815260206004820152600c60248201526b2737ba103090383630bcb2b960a11b604482015260640161030e565b826001806000838152600160208190526040909120015460ff16600281111561090f5761090f6111eb565b1461092c5760405162461bcd60e51b815260040161030e906112fc565b600085815260016020908152604080832060028101548452600c810190925290912060048201546001600160a01b031633036109be57805460ff16156109a85760405162461bcd60e51b8152602060048201526011602482015270105b1c9958591e4818dbdb5b5a5d1d1959607a1b604482015260640161030e565b6001808201879055815460ff1916178155610a1e565b8054610100900460ff1615610a095760405162461bcd60e51b8152602060048201526011602482015270105b1c9958591e4818dbdb5b5a5d1d1959607a1b604482015260640161030e565b60028101869055805461ff0019166101001781555b4260038301556002820154604051908152339088907ffc72b48edff9df7ca66d669e3b2ad693ae2c5d6381c95d89b2b2c01c42e7a1779060200160405180910390a350505050505050565b60006801158e460913d000003414610ab75760405162461bcd60e51b8152602060048201526011602482015270125b98dbdc9c9958dd0819195c1bdcda5d607a1b604482015260640161030e565b600080549080610ac6836113a6565b909155505060008054808252600160208181526040808520848155808401805460ff19908116909155600282018590554260038301558251608081018452338082526801158e460913d0000095820186905281850189905260609091018690526004830180546001600160a01b03191682179055600583019490945560068201879055600782018054909116909417909355519294509092909184917f18a47d8df22f178f89e665cc0fccf4ee175e91434c7b749c4a7607ffa4d33a6791a35090565b60025460ff1615610bac5760405162461bcd60e51b815260040161030e90611329565b6002805460ff19166001179055806000806000838152600160208190526040909120015460ff166002811115610be457610be46111eb565b14610c015760405162461bcd60e51b815260040161030e906112fc565b600083815260016020526040902060048101546001600160a01b03163314610c595760405162461bcd60e51b815260206004820152600b60248201526a2737ba1031b932b0ba37b960a91b604482015260640161030e565b60018101805460ff19166002179055610c7b336801158e460913d00000610fba565b604080516000808252602082015285916000805160206113f5833981519152910160405180910390a250506002805460ff191690555050565b806000806000838152600160208190526040909120015460ff166002811115610cdf57610cdf6111eb565b14610cfc5760405162461bcd60e51b815260040161030e906112fc565b6801158e460913d000003414610d485760405162461bcd60e51b8152602060048201526011602482015270125b98dbdc9c9958dd0819195c1bdcda5d607a1b604482015260640161030e565b600083815260016020526040902060048101546001600160a01b03163303610da55760405162461bcd60e51b815260206004820152601060248201526f43616e6e6f742073656c662d706c617960801b604482015260640161030e565b60408051608081018252338082526801158e460913d00000602083018190526000838501819052600160609094018490526008860180546001600160a01b031916841790556009860191909155600a8501819055600b8501805460ff1990811685179091558584018054909116909317909255426003850155915186917f87969bc7faf902221a147b95ceba76e011c5efb0339a0a8ee7a2bb82d9cfbbd691a350505050565b600081815260016020908152604080832060028101548452600c8101909252822060038101546005830180549394929391929091610e8a9084906113bf565b90915550506004810154600983018054600090610ea89084906113bf565b925050819055506000816004015482600301541115610eec57600683018054906000610ed3836113a6565b90915550505060048201546001600160a01b0316610f23565b816003015482600401541115610f2357600a83018054906000610f0e836113a6565b90915550505060088201546001600160a01b03165b600283015460038301546004840154604080519384526001600160a01b0385166020850152830191909152606082015284907fd5d50ecbb0796a826ef966c5f52d56b36cf7ff32182b77ffae8fccdb72cfc8a99060800160405180910390a2600583600201541015610fab57600283018054906000610fa1836113a6565b9190505550610fb4565b610fb484611054565b50505050565b6000826001600160a01b03168260405160006040518083038185875af1925050503d8060008114611007576040519150601f19603f3d011682016040523d82523d6000602084013e61100c565b606091505b505090508061104f5760405162461bcd60e51b815260206004820152600f60248201526e151c985b9cd9995c8819985a5b1959608a1b604482015260640161030e565b505050565b60008181526001602081905260408220908101805460ff1916600290811790915590919061108c906801158e460913d000009061138f565b600a830154600684015491925010156110f55760048201546110b7906001600160a01b031682610fba565b6004820154604080516001600160a01b0390921682526020820183905284916000805160206113f583398151915291015b60405180910390a2505050565b6006820154600a830154111561115257600882015461111d906001600160a01b031682610fba565b6008820154604080516001600160a01b0390921682526020820183905284916000805160206113f583398151915291016110e8565b600061115f6002836113d2565b600484015490915061117a906001600160a01b031682610fba565b6008830154611192906001600160a01b031682610fba565b837ffd85f55d87f5bc0d416a295b7d542937b36a71d7445647799a1da64f147af087826040516111c491815260200190565b60405180910390a250505050565b6000602082840312156111e457600080fd5b5035919050565b634e487b7160e01b600052602160045260246000fd5b86815261018081016003871061122757634e487b7160e01b600052602160045260246000fd5b86602083015285604083015284606083015261126f608083018580516001600160a01b0316825260208082015190830152604080820151908301526060908101511515910152565b82516001600160a01b03166101008301526020830151610120830152604083015161014083015260608301511515610160830152979650505050505050565b6000806000606084860312156112c357600080fd5b505081359360208301359350604090920135919050565b600080604083850312156112ed57600080fd5b50508035926020909101359150565b602080825260139082015272496e76616c6964206d6174636820737461746560681b604082015260600190565b6020808252601f908201527f5265656e7472616e637947756172643a207265656e7472616e742063616c6c00604082015260600190565b634e487b7160e01b600052601160045260246000fd5b8082018082111561138957611389611360565b92915050565b808202811582820484141761138957611389611360565b6000600182016113b8576113b8611360565b5060010190565b8181038181111561138957611389611360565b6000826113ef57634e487b7160e01b600052601260045260246000fd5b50049056fef7941575935cbb66993b36c83981a3fc6df73f88ce282ddfdc9bc41e40756a11a2646970667358221220040354cd8e541de052621f2ef1b2622a10e8c240e1277ce92baae643f8320bf564736f6c63430008180033",
  "linkReferences": {},
  "deployedLinkReferences": {}
}